{
  "contractName": "Records",
  "abi": [
    {
      "inputs": [
        {
          "internalType": "uint256",
          "name": "new_scholarship",
          "type": "uint256"
        }
      ],
      "stateMutability": "nonpayable",
      "type": "constructor"
    },
    {
      "inputs": [],
      "name": "recordCount",
      "outputs": [
        {
          "internalType": "uint256",
          "name": "",
          "type": "uint256"
        }
      ],
      "stateMutability": "view",
      "type": "function"
    },
    {
      "inputs": [],
      "name": "scholarship",
      "outputs": [
        {
          "internalType": "uint256",
          "name": "",
          "type": "uint256"
        }
      ],
      "stateMutability": "view",
      "type": "function"
    },
    {
      "inputs": [
        {
          "internalType": "string",
          "name": "_studentid",
          "type": "string"
        },
        {
          "internalType": "string",
          "name": "_name",
          "type": "string"
        },
        {
          "internalType": "string",
          "name": "_role",
          "type": "string"
        },
        {
          "internalType": "uint256",
          "name": "_gpa",
          "type": "uint256"
        },
        {
          "internalType": "uint256",
          "name": "_attendence",
          "type": "uint256"
        }
      ],
      "name": "createRecord",
      "outputs": [],
      "stateMutability": "nonpayable",
      "type": "function"
    },
    {
      "inputs": [
        {
          "internalType": "string",
          "name": "_studentid",
          "type": "string"
        },
        {
          "internalType": "string",
          "name": "_name",
          "type": "string"
        },
        {
          "internalType": "string",
          "name": "_role",
          "type": "string"
        },
        {
          "internalType": "uint256",
          "name": "_gpa",
          "type": "uint256"
        },
        {
          "internalType": "uint256",
          "name": "_attendence",
          "type": "uint256"
        }
      ],
      "name": "updateRecord",
      "outputs": [],
      "stateMutability": "nonpayable",
      "type": "function"
    },
    {
      "inputs": [
        {
          "internalType": "uint256",
          "name": "new_scholarship",
          "type": "uint256"
        }
      ],
      "name": "setScholarship",
      "outputs": [],
      "stateMutability": "nonpayable",
      "type": "function"
    },
    {
      "inputs": [],
      "name": "getRecordKeys",
      "outputs": [
        {
          "internalType": "string[]",
          "name": "",
          "type": "string[]"
        }
      ],
      "stateMutability": "view",
      "type": "function"
    },
    {
      "inputs": [
        {
          "internalType": "string",
          "name": "_studentid",
          "type": "string"
        }
      ],
      "name": "getRecord",
      "outputs": [
        {
          "internalType": "string",
          "name": "",
          "type": "string"
        },
        {
          "internalType": "string",
          "name": "",
          "type": "string"
        },
        {
          "internalType": "string",
          "name": "",
          "type": "string"
        },
        {
          "internalType": "uint256",
          "name": "",
          "type": "uint256"
        },
        {
          "internalType": "uint256",
          "name": "",
          "type": "uint256"
        },
        {
          "internalType": "uint256",
          "name": "",
          "type": "uint256"
        }
      ],
      "stateMutability": "view",
      "type": "function"
    },
    {
      "inputs": [],
      "name": "getAllRecords",
      "outputs": [
        {
          "components": [
            {
              "internalType": "string",
              "name": "studentid",
              "type": "string"
            },
            {
              "internalType": "string",
              "name": "name",
              "type": "string"
            },
            {
              "internalType": "string",
              "name": "role",
              "type": "string"
            },
            {
              "internalType": "uint256",
              "name": "gpa",
              "type": "uint256"
            },
            {
              "internalType": "uint256",
              "name": "attendence",
              "type": "uint256"
            },
            {
              "internalType": "uint256",
              "name": "scholarship",
              "type": "uint256"
            }
          ],
          "internalType": "struct Records.Record[]",
          "name": "",
          "type": "tuple[]"
        }
      ],
      "stateMutability": "view",
      "type": "function"
    },
    {
      "inputs": [
        {
          "internalType": "string",
          "name": "_studentid",
          "type": "string"
        }
      ],
      "name": "deleteRecord",
      "outputs": [],
      "stateMutability": "nonpayable",
      "type": "function"
    }
  ],
  "bytecode": "0x60806040523480156200001157600080fd5b50604051620016223803806200162283398181016040528101906200003791906200009b565b6103e88110156200004d576200004c620000cd565b5b8060028190555050620000fc565b600080fd5b6000819050919050565b620000758162000060565b81146200008157600080fd5b50565b60008151905062000095816200006a565b92915050565b600060208284031215620000b457620000b36200005b565b5b6000620000c48482850162000084565b91505092915050565b7f4e487b7100000000000000000000000000000000000000000000000000000000600052600160045260246000fd5b611516806200010c6000396000f3fe608060405234801561001057600080fd5b50600436106100935760003560e01c8063900407bc11610066578063900407bc1461012357806392af1b0814610141578063a75397751461015d578063a7f9fe721461017b578063fbc47d531461019957610093565b8063106f323b1461009857806311dd8845146100b457806339638ede146100e9578063701a073514610107575b600080fd5b6100b260048036038101906100ad9190610cf4565b6101b5565b005b6100ce60048036038101906100c99190610dc3565b61033d565b6040516100e096959493929190610ea3565b60405180910390f35b6100f161057b565b6040516100fe9190611025565b60405180910390f35b610121600480360381019061011c9190611047565b610654565b005b61012b610671565b6040516101389190611074565b60405180910390f35b61015b60048036038101906101569190610cf4565b610677565b005b610165610717565b6040516101729190611074565b60405180910390f35b61018361071d565b60405161019091906111f7565b60405180910390f35b6101b360048036038101906101ae9190610dc3565b6109df565b005b600080600254116101fb576040517f08c379a00000000000000000000000000000000000000000000000000000000081526004016101f29061128b565b60405180910390fd5b61012c8311801561020d57506102ee82115b156102185760025490505b60006040518060c001604052808881526020018781526020018681526020018581526020018481526020018381525090508060008860405161025a91906112e7565b90815260200160405180910390206000820151816000019080519060200190610284929190610a4b565b5060208201518160010190805190602001906102a1929190610a4b565b5060408201518160020190805190602001906102be929190610a4b565b50606082015181600301556080820151816004015560a08201518160050155905050600160008154809291906102f39061132d565b9190505550600387908060018154018082558091505060019003906000526020600020016000909190919091509080519060200190610333929190610a4b565b5050505050505050565b606080606060008060008060008860405161035891906112e7565b90815260200160405180910390206040518060c0016040529081600082018054610381906113a5565b80601f01602080910402602001604051908101604052809291908181526020018280546103ad906113a5565b80156103fa5780601f106103cf576101008083540402835291602001916103fa565b820191906000526020600020905b8154815290600101906020018083116103dd57829003601f168201915b50505050508152602001600182018054610413906113a5565b80601f016020809104026020016040519081016040528092919081815260200182805461043f906113a5565b801561048c5780601f106104615761010080835404028352916020019161048c565b820191906000526020600020905b81548152906001019060200180831161046f57829003601f168201915b505050505081526020016002820180546104a5906113a5565b80601f01602080910402602001604051908101604052809291908181526020018280546104d1906113a5565b801561051e5780601f106104f35761010080835404028352916020019161051e565b820191906000526020600020905b81548152906001019060200180831161050157829003601f168201915b5050505050815260200160038201548152602001600482015481526020016005820154815250509050806000015181602001518260400151836060015184608001518560a001519650965096509650965096505091939550919395565b60606003805480602002602001604051908101604052809291908181526020016000905b8282101561064b5783829060005260206000200180546105be906113a5565b80601f01602080910402602001604051908101604052809291908181526020018280546105ea906113a5565b80156106375780601f1061060c57610100808354040283529160200191610637565b820191906000526020600020905b81548152906001019060200180831161061a57829003601f168201915b50505050508152602001906001019061059f565b50505050905090565b6103e8811015610667576106666113d7565b5b8060028190555050565b60015481565b6000808660405161068891906112e7565b90815260200160405180910390209050848160010190805190602001906106b0929190610a4b565b50828160030181905550838160020190805190602001906106d2929190610a4b565b5081816004018190555061012c831180156106ee57506102ee82115b80156106fe575060008160050154145b1561070f5760025481600501819055505b505050505050565b60025481565b6060600060038054905067ffffffffffffffff8111156107405761073f610b93565b5b60405190808252806020026020018201604052801561077957816020015b610766610ad1565b81526020019060019003908161075e5790505b50905060005b6003805490508110156109d7576000600382815481106107a2576107a1611406565b5b906000526020600020016040516107b991906114c9565b90815260200160405180910390206040518060c00160405290816000820180546107e2906113a5565b80601f016020809104026020016040519081016040528092919081815260200182805461080e906113a5565b801561085b5780601f106108305761010080835404028352916020019161085b565b820191906000526020600020905b81548152906001019060200180831161083e57829003601f168201915b50505050508152602001600182018054610874906113a5565b80601f01602080910402602001604051908101604052809291908181526020018280546108a0906113a5565b80156108ed5780601f106108c2576101008083540402835291602001916108ed565b820191906000526020600020905b8154815290600101906020018083116108d057829003601f168201915b50505050508152602001600282018054610906906113a5565b80601f0160208091040260200160405190810160405280929190818152602001828054610932906113a5565b801561097f5780601f106109545761010080835404028352916020019161097f565b820191906000526020600020905b81548152906001019060200180831161096257829003601f168201915b5050505050815260200160038201548152602001600482015481526020016005820154815250508282815181106109b9576109b8611406565b5b602002602001018190525080806109cf9061132d565b91505061077f565b508091505090565b6000816040516109ef91906112e7565b908152602001604051809103902060008082016000610a0e9190610b07565b600182016000610a1e9190610b07565b600282016000610a2e9190610b07565b600382016000905560048201600090556005820160009055505050565b828054610a57906113a5565b90600052602060002090601f016020900481019282610a795760008555610ac0565b82601f10610a9257805160ff1916838001178555610ac0565b82800160010185558215610ac0579182015b82811115610abf578251825591602001919060010190610aa4565b5b509050610acd9190610b47565b5090565b6040518060c001604052806060815260200160608152602001606081526020016000815260200160008152602001600081525090565b508054610b13906113a5565b6000825580601f10610b255750610b44565b601f016020900490600052602060002090810190610b439190610b47565b5b50565b5b80821115610b60576000816000905550600101610b48565b5090565b6000604051905090565b600080fd5b600080fd5b600080fd5b600080fd5b6000601f19601f8301169050919050565b7f4e487b7100000000000000000000000000000000000000000000000000000000600052604160045260246000fd5b610bcb82610b82565b810181811067ffffffffffffffff82111715610bea57610be9610b93565b5b80604052505050565b6000610bfd610b64565b9050610c098282610bc2565b919050565b600067ffffffffffffffff821115610c2957610c28610b93565b5b610c3282610b82565b9050602081019050919050565b82818337600083830152505050565b6000610c61610c5c84610c0e565b610bf3565b905082815260208101848484011115610c7d57610c7c610b7d565b5b610c88848285610c3f565b509392505050565b600082601f830112610ca557610ca4610b78565b5b8135610cb5848260208601610c4e565b91505092915050565b6000819050919050565b610cd181610cbe565b8114610cdc57600080fd5b50565b600081359050610cee81610cc8565b92915050565b600080600080600060a08688031215610d1057610d0f610b6e565b5b600086013567ffffffffffffffff811115610d2e57610d2d610b73565b5b610d3a88828901610c90565b955050602086013567ffffffffffffffff811115610d5b57610d5a610b73565b5b610d6788828901610c90565b945050604086013567ffffffffffffffff811115610d8857610d87610b73565b5b610d9488828901610c90565b9350506060610da588828901610cdf565b9250506080610db688828901610cdf565b9150509295509295909350565b600060208284031215610dd957610dd8610b6e565b5b600082013567ffffffffffffffff811115610df757610df6610b73565b5b610e0384828501610c90565b91505092915050565b600081519050919050565b600082825260208201905092915050565b60005b83811015610e46578082015181840152602081019050610e2b565b83811115610e55576000848401525b50505050565b6000610e6682610e0c565b610e708185610e17565b9350610e80818560208601610e28565b610e8981610b82565b840191505092915050565b610e9d81610cbe565b82525050565b600060c0820190508181036000830152610ebd8189610e5b565b90508181036020830152610ed18188610e5b565b90508181036040830152610ee58187610e5b565b9050610ef46060830186610e94565b610f016080830185610e94565b610f0e60a0830184610e94565b979650505050505050565b600081519050919050565b600082825260208201905092915050565b6000819050602082019050919050565b600082825260208201905092915050565b6000610f6182610e0c565b610f6b8185610f45565b9350610f7b818560208601610e28565b610f8481610b82565b840191505092915050565b6000610f9b8383610f56565b905092915050565b6000602082019050919050565b6000610fbb82610f19565b610fc58185610f24565b935083602082028501610fd785610f35565b8060005b858110156110135784840389528151610ff48582610f8f565b9450610fff83610fa3565b925060208a01995050600181019050610fdb565b50829750879550505050505092915050565b6000602082019050818103600083015261103f8184610fb0565b905092915050565b60006020828403121561105d5761105c610b6e565b5b600061106b84828501610cdf565b91505092915050565b60006020820190506110896000830184610e94565b92915050565b600081519050919050565b600082825260208201905092915050565b6000819050602082019050919050565b6110c481610cbe565b82525050565b600060c08301600083015184820360008601526110e78282610f56565b915050602083015184820360208601526111018282610f56565b9150506040830151848203604086015261111b8282610f56565b915050606083015161113060608601826110bb565b50608083015161114360808601826110bb565b5060a083015161115660a08601826110bb565b508091505092915050565b600061116d83836110ca565b905092915050565b6000602082019050919050565b600061118d8261108f565b611197818561109a565b9350836020820285016111a9856110ab565b8060005b858110156111e557848403895281516111c68582611161565b94506111d183611175565b925060208a019950506001810190506111ad565b50829750879550505050505092915050565b600060208201905081810360008301526112118184611182565b905092915050565b7f53657420746865207363686f6c6172736869702066697273742c20746f20637260008201527f656174652061207265636f726400000000000000000000000000000000000000602082015250565b6000611275602d83610e17565b915061128082611219565b604082019050919050565b600060208201905081810360008301526112a481611268565b9050919050565b600081905092915050565b60006112c182610e0c565b6112cb81856112ab565b93506112db818560208601610e28565b80840191505092915050565b60006112f382846112b6565b915081905092915050565b7f4e487b7100000000000000000000000000000000000000000000000000000000600052601160045260246000fd5b600061133882610cbe565b91507fffffffffffffffffffffffffffffffffffffffffffffffffffffffffffffffff82141561136b5761136a6112fe565b5b600182019050919050565b7f4e487b7100000000000000000000000000000000000000000000000000000000600052602260045260246000fd5b600060028204905060018216806113bd57607f821691505b602082108114156113d1576113d0611376565b5b50919050565b7f4e487b7100000000000000000000000000000000000000000000000000000000600052600160045260246000fd5b7f4e487b7100000000000000000000000000000000000000000000000000000000600052603260045260246000fd5b60008190508160005260206000209050919050565b60008154611457816113a5565b61146181866112ab565b9450600182166000811461147c576001811461148d576114c0565b60ff198316865281860193506114c0565b61149685611435565b60005b838110156114b857815481890152600182019150602081019050611499565b838801955050505b50505092915050565b60006114d5828461144a565b91508190509291505056fea2646970667358221220ac802ad730ea3b9de32c41e988bbd082c8246832e5c7c9c47446d9e04efec99064736f6c634300080b0033",
  "immutableReferences": {},
  "source": "// SPDX-License-Identifier: MIT\npragma solidity ^0.8.0;\n\ncontract Records {\n    struct Record {\n        string studentid;\n        string name;\n        string role;\n        uint gpa;\n        uint attendence;\n        uint scholarship;\n    }\n    \n    mapping (string => Record) records;\n    uint public recordCount;\n    uint public scholarship;\n    string[] private recordKeys;\n    \n    constructor(uint new_scholarship) {\n        assert(new_scholarship >= 1000);\n        scholarship=new_scholarship;\n    }\n    function createRecord(string memory _studentid, string memory _name,string memory _role, uint _gpa, uint _attendence) public {\n        //require(keccak256(abi.encodePacked(records[_name].name )) == keccak256(abi.encodePacked(_name)), \"Record already exists\");\n        uint _scholarship=0;\n        require(scholarship > 0, \"Set the scholarship first, to create a record\");\n        if(_gpa>300 && _attendence>750)\n            _scholarship = scholarship;\n        Record memory newRecord = Record(_studentid, _name, _role, _gpa, _attendence, _scholarship);\n        records[_studentid] = newRecord;\n        recordCount++;\n        recordKeys.push(_studentid);\n    }\n    \n    function updateRecord(string memory _studentid, string memory _name, string memory _role, uint _gpa, uint _attendence) public {\n        Record storage recordToUpdate = records[_studentid];\n        recordToUpdate.name = _name;\n        recordToUpdate.gpa = _gpa;\n        recordToUpdate.role = _role;\n        recordToUpdate.attendence = _attendence;\n        if(_gpa>300 && _attendence>750 && recordToUpdate.scholarship == 0)\n            recordToUpdate.scholarship = scholarship;\n    }\n    \n    function setScholarship(uint new_scholarship) public {\n        assert(new_scholarship >= 1000);\n        scholarship=new_scholarship;\n    }\n\n    function getRecordKeys() public view returns (string[] memory) {\n        return recordKeys;\n    }\n\n    function getRecord(string memory _studentid) public view returns (string memory, string memory, string memory, uint, uint, uint) {\n        Record memory record = records[_studentid];\n        return (record.studentid, record.name, record.role, record.gpa, record.attendence, record.scholarship);\n    }\n    \n    function getAllRecords() public view returns (Record[] memory) {\n        Record[] memory allRecords = new Record[](recordKeys.length);\n        for (uint i = 0; i < recordKeys.length; i++) {\n            allRecords[i] = records[recordKeys[i]];\n        }\n        return allRecords;\n    }\n\n    function deleteRecord(string memory _studentid) public {\n        delete records[_studentid];\n    }\n}\n",
  "sourcePath": "/Users/yasaswi/Desktop/Ualbany/Third Sem/My project/Mastersproject/contracts/Student.sol",
  "compiler": {
    "name": "solc",
    "version": "0.8.11+commit.d7f03943.Emscripten.clang"
  },
  "schemaVersion": "3.4.12",
  "updatedAt": "2023-03-12T19:18:56.578Z",
  "devdoc": {
    "kind": "dev",
    "methods": {},
    "version": 1
  },
  "userdoc": {
    "kind": "user",
    "methods": {},
    "version": 1
  }
}