{
  "contractName": "Student",
  "abi": [
    {
      "inputs": [
        {
          "internalType": "uint256",
          "name": "new_scholarship",
          "type": "uint256"
        }
      ],
      "stateMutability": "nonpayable",
      "type": "constructor"
    },
    {
      "inputs": [
        {
          "internalType": "uint256",
          "name": "",
          "type": "uint256"
        }
      ],
      "name": "allowedAddresses",
      "outputs": [
        {
          "internalType": "address",
          "name": "",
          "type": "address"
        }
      ],
      "stateMutability": "view",
      "type": "function",
      "constant": true
    },
    {
      "inputs": [],
      "name": "owner",
      "outputs": [
        {
          "internalType": "address",
          "name": "",
          "type": "address"
        }
      ],
      "stateMutability": "view",
      "type": "function",
      "constant": true
    },
    {
      "inputs": [],
      "name": "recordCount",
      "outputs": [
        {
          "internalType": "uint256",
          "name": "",
          "type": "uint256"
        }
      ],
      "stateMutability": "view",
      "type": "function",
      "constant": true
    },
    {
      "inputs": [],
      "name": "scholarship",
      "outputs": [
        {
          "internalType": "uint256",
          "name": "",
          "type": "uint256"
        }
      ],
      "stateMutability": "view",
      "type": "function",
      "constant": true
    },
    {
      "inputs": [
        {
          "internalType": "address",
          "name": "newAddress",
          "type": "address"
        }
      ],
      "name": "addAddress",
      "outputs": [],
      "stateMutability": "nonpayable",
      "type": "function"
    },
    {
      "inputs": [
        {
          "internalType": "address",
          "name": "newAddress",
          "type": "address"
        }
      ],
      "name": "deleteAddress",
      "outputs": [],
      "stateMutability": "nonpayable",
      "type": "function"
    },
    {
      "inputs": [],
      "name": "getAddresses",
      "outputs": [
        {
          "internalType": "address[]",
          "name": "",
          "type": "address[]"
        }
      ],
      "stateMutability": "view",
      "type": "function",
      "constant": true
    },
    {
      "inputs": [
        {
          "internalType": "string",
          "name": "_studentid",
          "type": "string"
        },
        {
          "internalType": "string",
          "name": "_firstName",
          "type": "string"
        },
        {
          "internalType": "string",
          "name": "_lastName",
          "type": "string"
        },
        {
          "internalType": "string",
          "name": "_role",
          "type": "string"
        },
        {
          "internalType": "uint256",
          "name": "_gpa",
          "type": "uint256"
        },
        {
          "internalType": "uint256",
          "name": "_attendence",
          "type": "uint256"
        }
      ],
      "name": "createRecord",
      "outputs": [],
      "stateMutability": "nonpayable",
      "type": "function"
    },
    {
      "inputs": [
        {
          "internalType": "string",
          "name": "_studentid",
          "type": "string"
        },
        {
          "internalType": "string",
          "name": "_firstName",
          "type": "string"
        },
        {
          "internalType": "string",
          "name": "_lastName",
          "type": "string"
        },
        {
          "internalType": "string",
          "name": "_role",
          "type": "string"
        },
        {
          "internalType": "uint256",
          "name": "_gpa",
          "type": "uint256"
        },
        {
          "internalType": "uint256",
          "name": "_attendence",
          "type": "uint256"
        }
      ],
      "name": "updateRecord",
      "outputs": [],
      "stateMutability": "nonpayable",
      "type": "function"
    },
    {
      "inputs": [
        {
          "internalType": "uint256",
          "name": "new_scholarship",
          "type": "uint256"
        }
      ],
      "name": "setScholarship",
      "outputs": [],
      "stateMutability": "nonpayable",
      "type": "function"
    },
    {
      "inputs": [],
      "name": "getRecordKeys",
      "outputs": [
        {
          "internalType": "string[]",
          "name": "",
          "type": "string[]"
        }
      ],
      "stateMutability": "view",
      "type": "function",
      "constant": true
    },
    {
      "inputs": [
        {
          "internalType": "string",
          "name": "_studentid",
          "type": "string"
        }
      ],
      "name": "getRecord",
      "outputs": [
        {
          "internalType": "string",
          "name": "",
          "type": "string"
        },
        {
          "internalType": "string",
          "name": "",
          "type": "string"
        },
        {
          "internalType": "string",
          "name": "",
          "type": "string"
        },
        {
          "internalType": "string",
          "name": "",
          "type": "string"
        },
        {
          "internalType": "uint256",
          "name": "",
          "type": "uint256"
        },
        {
          "internalType": "uint256",
          "name": "",
          "type": "uint256"
        },
        {
          "internalType": "uint256",
          "name": "",
          "type": "uint256"
        }
      ],
      "stateMutability": "view",
      "type": "function",
      "constant": true
    },
    {
      "inputs": [],
      "name": "getAllRecords",
      "outputs": [
        {
          "components": [
            {
              "internalType": "string",
              "name": "studentid",
              "type": "string"
            },
            {
              "internalType": "string",
              "name": "firstName",
              "type": "string"
            },
            {
              "internalType": "string",
              "name": "lastName",
              "type": "string"
            },
            {
              "internalType": "string",
              "name": "role",
              "type": "string"
            },
            {
              "internalType": "uint256",
              "name": "gpa",
              "type": "uint256"
            },
            {
              "internalType": "uint256",
              "name": "attendence",
              "type": "uint256"
            },
            {
              "internalType": "uint256",
              "name": "scholarship",
              "type": "uint256"
            }
          ],
          "internalType": "struct Student.Record[]",
          "name": "",
          "type": "tuple[]"
        }
      ],
      "stateMutability": "view",
      "type": "function",
      "constant": true
    },
    {
      "inputs": [
        {
          "internalType": "string",
          "name": "_studentid",
          "type": "string"
        }
      ],
      "name": "deleteRecord",
      "outputs": [],
      "stateMutability": "nonpayable",
      "type": "function"
    }
  ],
  "bytecode": "0x60806040523480156200001157600080fd5b506040516200294638038062002946833981810160405281019062000037919062000124565b6103e88110156200007f576040517f08c379a00000000000000000000000000000000000000000000000000000000081526004016200007690620001dd565b60405180910390fd5b6103e8811015620000955762000094620001ff565b5b8060028190555033600360006101000a81548173ffffffffffffffffffffffffffffffffffffffff021916908373ffffffffffffffffffffffffffffffffffffffff160217905550506200022e565b600080fd5b6000819050919050565b620000fe81620000e9565b81146200010a57600080fd5b50565b6000815190506200011e81620000f3565b92915050565b6000602082840312156200013d576200013c620000e4565b5b60006200014d848285016200010d565b91505092915050565b600082825260208201905092915050565b7f5363686f6c6172736869702073686f756c642062652061746c6561737420313060008201527f3030000000000000000000000000000000000000000000000000000000000000602082015250565b6000620001c560228362000156565b9150620001d28262000167565b604082019050919050565b60006020820190508181036000830152620001f881620001b6565b9050919050565b7f4e487b7100000000000000000000000000000000000000000000000000000000600052600160045260246000fd5b612708806200023e6000396000f3fe608060405234801561001057600080fd5b50600436106100ea5760003560e01c8063742887ff1161008c578063a39fac1211610066578063a39fac121461023b578063a753977514610259578063a7f9fe7214610277578063fbc47d5314610295576100ea565b8063742887ff146101e35780638da5cb5b146101ff578063900407bc1461021d576100ea565b806339638ede116100c857806339638ede1461015d5780636097c5611461017b57806364b55bed14610197578063701a0735146101c7576100ea565b806311dd8845146100ef578063182261961461012557806338eada1c14610141575b600080fd5b610109600480360381019061010491906119d6565b6102b1565b60405161011c9796959493929190611ac0565b60405180910390f35b61013f600480360381019061013a9190611b77565b61058b565b005b61015b60048036038101906101569190611cd2565b610882565b005b610165610a69565b6040516101729190611e0b565b60405180910390f35b61019560048036038101906101909190611b77565b610b42565b005b6101b160048036038101906101ac9190611e2d565b610d47565b6040516101be9190611e69565b60405180910390f35b6101e160048036038101906101dc9190611e2d565b610d86565b005b6101fd60048036038101906101f89190611cd2565b610f20565b005b6102076111ac565b6040516102149190611e69565b60405180910390f35b6102256111d2565b6040516102329190611e84565b60405180910390f35b6102436111d8565b6040516102509190611f5d565b60405180910390f35b6102616112f6565b60405161026e9190611e84565b60405180910390f35b61027f6112fc565b60405161028c9190612101565b60405180910390f35b6102af60048036038101906102aa91906119d6565b611650565b005b6060806060806000806000806000896040516102cd919061215f565b90815260200160405180910390206040518060e00160405290816000820180546102f6906121a5565b80601f0160208091040260200160405190810160405280929190818152602001828054610322906121a5565b801561036f5780601f106103445761010080835404028352916020019161036f565b820191906000526020600020905b81548152906001019060200180831161035257829003601f168201915b50505050508152602001600182018054610388906121a5565b80601f01602080910402602001604051908101604052809291908181526020018280546103b4906121a5565b80156104015780601f106103d657610100808354040283529160200191610401565b820191906000526020600020905b8154815290600101906020018083116103e457829003601f168201915b5050505050815260200160028201805461041a906121a5565b80601f0160208091040260200160405190810160405280929190818152602001828054610446906121a5565b80156104935780601f1061046857610100808354040283529160200191610493565b820191906000526020600020905b81548152906001019060200180831161047657829003601f168201915b505050505081526020016003820180546104ac906121a5565b80601f01602080910402602001604051908101604052809291908181526020018280546104d8906121a5565b80156105255780601f106104fa57610100808354040283529160200191610525565b820191906000526020600020905b81548152906001019060200180831161050857829003601f168201915b5050505050815260200160048201548152602001600582015481526020016006820154815250509050806000015181602001518260400151836060015184608001518560a001518660c00151975097509750975097509750975050919395979092949650565b6000805b60048054905081101561062a57600481815481106105b0576105af6121d7565b5b9060005260206000200160009054906101000a900473ffffffffffffffffffffffffffffffffffffffff1673ffffffffffffffffffffffffffffffffffffffff163373ffffffffffffffffffffffffffffffffffffffff161415610617576001915061062a565b808061062290612235565b91505061058f565b50600360009054906101000a900473ffffffffffffffffffffffffffffffffffffffff1673ffffffffffffffffffffffffffffffffffffffff163373ffffffffffffffffffffffffffffffffffffffff16141561068657600190505b6000151581151514156106d55760006106d4576040517f08c379a00000000000000000000000000000000000000000000000000000000081526004016106cb906122f0565b60405180910390fd5b5b6000806002541161071b576040517f08c379a000000000000000000000000000000000000000000000000000000000815260040161071290612382565b60405180910390fd5b61012c841015801561072d5750604b83115b156107385760025490505b60006040518060e001604052808a81526020018981526020018881526020018781526020018681526020018581526020018381525090508060008a604051610780919061215f565b908152602001604051809103902060008201518160000190805190602001906107aa92919061175c565b5060208201518160010190805190602001906107c792919061175c565b5060408201518160020190805190602001906107e492919061175c565b50606082015181600301908051906020019061080192919061175c565b506080820151816004015560a0820151816005015560c082015181600601559050506001600081548092919061083690612235565b919050555060058990806001815401808255809150506001900390600052602060002001600090919091909150908051906020019061087692919061175c565b50505050505050505050565b600360009054906101000a900473ffffffffffffffffffffffffffffffffffffffff1673ffffffffffffffffffffffffffffffffffffffff163373ffffffffffffffffffffffffffffffffffffffff1614610912576040517f08c379a000000000000000000000000000000000000000000000000000000000815260040161090990612414565b60405180910390fd5b6000805b6004805490508110156109b1578273ffffffffffffffffffffffffffffffffffffffff166004828154811061094e5761094d6121d7565b5b9060005260206000200160009054906101000a900473ffffffffffffffffffffffffffffffffffffffff1673ffffffffffffffffffffffffffffffffffffffff16141561099e57600191506109b1565b80806109a990612235565b915050610916565b506001811415610a015760006109fc576040517f08c379a00000000000000000000000000000000000000000000000000000000081526004016109f3906124a6565b60405180910390fd5b610a65565b6004829080600181540180825580915050600190039060005260206000200160009091909190916101000a81548173ffffffffffffffffffffffffffffffffffffffff021916908373ffffffffffffffffffffffffffffffffffffffff1602179055505b5050565b60606005805480602002602001604051908101604052809291908181526020016000905b82821015610b39578382906000526020600020018054610aac906121a5565b80601f0160208091040260200160405190810160405280929190818152602001828054610ad8906121a5565b8015610b255780601f10610afa57610100808354040283529160200191610b25565b820191906000526020600020905b815481529060010190602001808311610b0857829003601f168201915b505050505081526020019060010190610a8d565b50505050905090565b6000805b600480549050811015610be15760048181548110610b6757610b666121d7565b5b9060005260206000200160009054906101000a900473ffffffffffffffffffffffffffffffffffffffff1673ffffffffffffffffffffffffffffffffffffffff163373ffffffffffffffffffffffffffffffffffffffff161415610bce5760019150610be1565b8080610bd990612235565b915050610b46565b50600360009054906101000a900473ffffffffffffffffffffffffffffffffffffffff1673ffffffffffffffffffffffffffffffffffffffff163373ffffffffffffffffffffffffffffffffffffffff161415610c3d57600190505b600015158115151415610c8c576000610c8b576040517f08c379a0000000000000000000000000000000000000000000000000000000008152600401610c82906122f0565b60405180910390fd5b5b60008088604051610c9d919061215f565b9081526020016040518091039020905086816001019080519060200190610cc592919061175c565b5085816002019080519060200190610cde92919061175c565b5083816004018190555084816003019080519060200190610d0092919061175c565b5082816005018190555061012c8410158015610d1c5750604b83115b8015610d2c575060008160060154145b15610d3d5760025481600601819055505b5050505050505050565b60048181548110610d5757600080fd5b906000526020600020016000915054906101000a900473ffffffffffffffffffffffffffffffffffffffff1681565b6000805b600480549050811015610e255760048181548110610dab57610daa6121d7565b5b9060005260206000200160009054906101000a900473ffffffffffffffffffffffffffffffffffffffff1673ffffffffffffffffffffffffffffffffffffffff163373ffffffffffffffffffffffffffffffffffffffff161415610e125760019150610e25565b8080610e1d90612235565b915050610d8a565b50600360009054906101000a900473ffffffffffffffffffffffffffffffffffffffff1673ffffffffffffffffffffffffffffffffffffffff163373ffffffffffffffffffffffffffffffffffffffff161415610e8157600190505b600015158115151415610ed0576000610ecf576040517f08c379a0000000000000000000000000000000000000000000000000000000008152600401610ec6906122f0565b60405180910390fd5b5b6103e8821015610f15576040517f08c379a0000000000000000000000000000000000000000000000000000000008152600401610f0c90612538565b60405180910390fd5b816002819055505050565b600360009054906101000a900473ffffffffffffffffffffffffffffffffffffffff1673ffffffffffffffffffffffffffffffffffffffff163373ffffffffffffffffffffffffffffffffffffffff1614610fb0576040517f08c379a0000000000000000000000000000000000000000000000000000000008152600401610fa790612414565b60405180910390fd5b6000805b60048054905081101561115c578273ffffffffffffffffffffffffffffffffffffffff1660048281548110610fec57610feb6121d7565b5b9060005260206000200160009054906101000a900473ffffffffffffffffffffffffffffffffffffffff1673ffffffffffffffffffffffffffffffffffffffff1614156111495760016004805490506110459190612558565b8110156110f957600460016004805490506110609190612558565b81548110611071576110706121d7565b5b9060005260206000200160009054906101000a900473ffffffffffffffffffffffffffffffffffffffff16600482815481106110b0576110af6121d7565b5b9060005260206000200160006101000a81548173ffffffffffffffffffffffffffffffffffffffff021916908373ffffffffffffffffffffffffffffffffffffffff1602179055505b600480548061110b5761110a61258c565b5b6001900381819060005260206000200160006101000a81549073ffffffffffffffffffffffffffffffffffffffff021916905590556001915061115c565b808061115490612235565b915050610fb4565b5060008114156111a85760006111a7576040517f08c379a000000000000000000000000000000000000000000000000000000000815260040161119e90612607565b60405180910390fd5b5b5050565b600360009054906101000a900473ffffffffffffffffffffffffffffffffffffffff1681565b60015481565b6060600360009054906101000a900473ffffffffffffffffffffffffffffffffffffffff1673ffffffffffffffffffffffffffffffffffffffff163373ffffffffffffffffffffffffffffffffffffffff161461126a576040517f08c379a000000000000000000000000000000000000000000000000000000000815260040161126190612414565b60405180910390fd5b60048054806020026020016040519081016040528092919081815260200182805480156112ec57602002820191906000526020600020905b8160009054906101000a900473ffffffffffffffffffffffffffffffffffffffff1673ffffffffffffffffffffffffffffffffffffffff16815260200190600101908083116112a2575b5050505050905090565b60025481565b6060600060058054905067ffffffffffffffff81111561131f5761131e6118ab565b5b60405190808252806020026020018201604052801561135857816020015b6113456117e2565b81526020019060019003908161133d5790505b50905060005b60058054905081101561164857600060058281548110611381576113806121d7565b5b9060005260206000200160405161139891906126bb565b90815260200160405180910390206040518060e00160405290816000820180546113c1906121a5565b80601f01602080910402602001604051908101604052809291908181526020018280546113ed906121a5565b801561143a5780601f1061140f5761010080835404028352916020019161143a565b820191906000526020600020905b81548152906001019060200180831161141d57829003601f168201915b50505050508152602001600182018054611453906121a5565b80601f016020809104026020016040519081016040528092919081815260200182805461147f906121a5565b80156114cc5780601f106114a1576101008083540402835291602001916114cc565b820191906000526020600020905b8154815290600101906020018083116114af57829003601f168201915b505050505081526020016002820180546114e5906121a5565b80601f0160208091040260200160405190810160405280929190818152602001828054611511906121a5565b801561155e5780601f106115335761010080835404028352916020019161155e565b820191906000526020600020905b81548152906001019060200180831161154157829003601f168201915b50505050508152602001600382018054611577906121a5565b80601f01602080910402602001604051908101604052809291908181526020018280546115a3906121a5565b80156115f05780601f106115c5576101008083540402835291602001916115f0565b820191906000526020600020905b8154815290600101906020018083116115d357829003601f168201915b50505050508152602001600482015481526020016005820154815260200160068201548152505082828151811061162a576116296121d7565b5b6020026020010181905250808061164090612235565b91505061135e565b508091505090565b600360009054906101000a900473ffffffffffffffffffffffffffffffffffffffff1673ffffffffffffffffffffffffffffffffffffffff163373ffffffffffffffffffffffffffffffffffffffff16146116e0576040517f08c379a00000000000000000000000000000000000000000000000000000000081526004016116d790612414565b60405180910390fd5b6000816040516116f0919061215f565b90815260200160405180910390206000808201600061170f919061181f565b60018201600061171f919061181f565b60028201600061172f919061181f565b60038201600061173f919061181f565b600482016000905560058201600090556006820160009055505050565b828054611768906121a5565b90600052602060002090601f01602090048101928261178a57600085556117d1565b82601f106117a357805160ff19168380011785556117d1565b828001600101855582156117d1579182015b828111156117d05782518255916020019190600101906117b5565b5b5090506117de919061185f565b5090565b6040518060e00160405280606081526020016060815260200160608152602001606081526020016000815260200160008152602001600081525090565b50805461182b906121a5565b6000825580601f1061183d575061185c565b601f01602090049060005260206000209081019061185b919061185f565b5b50565b5b80821115611878576000816000905550600101611860565b5090565b6000604051905090565b600080fd5b600080fd5b600080fd5b600080fd5b6000601f19601f8301169050919050565b7f4e487b7100000000000000000000000000000000000000000000000000000000600052604160045260246000fd5b6118e38261189a565b810181811067ffffffffffffffff82111715611902576119016118ab565b5b80604052505050565b600061191561187c565b905061192182826118da565b919050565b600067ffffffffffffffff821115611941576119406118ab565b5b61194a8261189a565b9050602081019050919050565b82818337600083830152505050565b600061197961197484611926565b61190b565b90508281526020810184848401111561199557611994611895565b5b6119a0848285611957565b509392505050565b600082601f8301126119bd576119bc611890565b5b81356119cd848260208601611966565b91505092915050565b6000602082840312156119ec576119eb611886565b5b600082013567ffffffffffffffff811115611a0a57611a0961188b565b5b611a16848285016119a8565b91505092915050565b600081519050919050565b600082825260208201905092915050565b60005b83811015611a59578082015181840152602081019050611a3e565b83811115611a68576000848401525b50505050565b6000611a7982611a1f565b611a838185611a2a565b9350611a93818560208601611a3b565b611a9c8161189a565b840191505092915050565b6000819050919050565b611aba81611aa7565b82525050565b600060e0820190508181036000830152611ada818a611a6e565b90508181036020830152611aee8189611a6e565b90508181036040830152611b028188611a6e565b90508181036060830152611b168187611a6e565b9050611b256080830186611ab1565b611b3260a0830185611ab1565b611b3f60c0830184611ab1565b98975050505050505050565b611b5481611aa7565b8114611b5f57600080fd5b50565b600081359050611b7181611b4b565b92915050565b60008060008060008060c08789031215611b9457611b93611886565b5b600087013567ffffffffffffffff811115611bb257611bb161188b565b5b611bbe89828a016119a8565b965050602087013567ffffffffffffffff811115611bdf57611bde61188b565b5b611beb89828a016119a8565b955050604087013567ffffffffffffffff811115611c0c57611c0b61188b565b5b611c1889828a016119a8565b945050606087013567ffffffffffffffff811115611c3957611c3861188b565b5b611c4589828a016119a8565b9350506080611c5689828a01611b62565b92505060a0611c6789828a01611b62565b9150509295509295509295565b600073ffffffffffffffffffffffffffffffffffffffff82169050919050565b6000611c9f82611c74565b9050919050565b611caf81611c94565b8114611cba57600080fd5b50565b600081359050611ccc81611ca6565b92915050565b600060208284031215611ce857611ce7611886565b5b6000611cf684828501611cbd565b91505092915050565b600081519050919050565b600082825260208201905092915050565b6000819050602082019050919050565b600082825260208201905092915050565b6000611d4782611a1f565b611d518185611d2b565b9350611d61818560208601611a3b565b611d6a8161189a565b840191505092915050565b6000611d818383611d3c565b905092915050565b6000602082019050919050565b6000611da182611cff565b611dab8185611d0a565b935083602082028501611dbd85611d1b565b8060005b85811015611df95784840389528151611dda8582611d75565b9450611de583611d89565b925060208a01995050600181019050611dc1565b50829750879550505050505092915050565b60006020820190508181036000830152611e258184611d96565b905092915050565b600060208284031215611e4357611e42611886565b5b6000611e5184828501611b62565b91505092915050565b611e6381611c94565b82525050565b6000602082019050611e7e6000830184611e5a565b92915050565b6000602082019050611e996000830184611ab1565b92915050565b600081519050919050565b600082825260208201905092915050565b6000819050602082019050919050565b611ed481611c94565b82525050565b6000611ee68383611ecb565b60208301905092915050565b6000602082019050919050565b6000611f0a82611e9f565b611f148185611eaa565b9350611f1f83611ebb565b8060005b83811015611f50578151611f378882611eda565b9750611f4283611ef2565b925050600181019050611f23565b5085935050505092915050565b60006020820190508181036000830152611f778184611eff565b905092915050565b600081519050919050565b600082825260208201905092915050565b6000819050602082019050919050565b611fb481611aa7565b82525050565b600060e0830160008301518482036000860152611fd78282611d3c565b91505060208301518482036020860152611ff18282611d3c565b9150506040830151848203604086015261200b8282611d3c565b915050606083015184820360608601526120258282611d3c565b915050608083015161203a6080860182611fab565b5060a083015161204d60a0860182611fab565b5060c083015161206060c0860182611fab565b508091505092915050565b60006120778383611fba565b905092915050565b6000602082019050919050565b600061209782611f7f565b6120a18185611f8a565b9350836020820285016120b385611f9b565b8060005b858110156120ef57848403895281516120d0858261206b565b94506120db8361207f565b925060208a019950506001810190506120b7565b50829750879550505050505092915050565b6000602082019050818103600083015261211b818461208c565b905092915050565b600081905092915050565b600061213982611a1f565b6121438185612123565b9350612153818560208601611a3b565b80840191505092915050565b600061216b828461212e565b915081905092915050565b7f4e487b7100000000000000000000000000000000000000000000000000000000600052602260045260246000fd5b600060028204905060018216806121bd57607f821691505b602082108114156121d1576121d0612176565b5b50919050565b7f4e487b7100000000000000000000000000000000000000000000000000000000600052603260045260246000fd5b7f4e487b7100000000000000000000000000000000000000000000000000000000600052601160045260246000fd5b600061224082611aa7565b91507fffffffffffffffffffffffffffffffffffffffffffffffffffffffffffffffff82141561227357612272612206565b5b600182019050919050565b7f4163636573732064656e6965642e20596f7520617265206e6f7420616c6c6f7760008201527f656420746f2063616c6c20746869732066756e6374696f6e2e00000000000000602082015250565b60006122da603983611a2a565b91506122e58261227e565b604082019050919050565b60006020820190508181036000830152612309816122cd565b9050919050565b7f53657420746865207363686f6c6172736869702066697273742c20746f20637260008201527f656174652061207265636f726400000000000000000000000000000000000000602082015250565b600061236c602d83611a2a565b915061237782612310565b604082019050919050565b6000602082019050818103600083015261239b8161235f565b9050919050565b7f4163636573732064656e6965642e20596f7520617265206e6f7420746865206f60008201527f776e65722e000000000000000000000000000000000000000000000000000000602082015250565b60006123fe602583611a2a565b9150612409826123a2565b604082019050919050565b6000602082019050818103600083015261242d816123f1565b9050919050565b7f4164647265737320616c72656164792065786973747320696e20746865206c6960008201527f7374000000000000000000000000000000000000000000000000000000000000602082015250565b6000612490602283611a2a565b915061249b82612434565b604082019050919050565b600060208201905081810360008301526124bf81612483565b9050919050565b7f5363686f6c6172736869702073686f756c64206265206d6f7265207468616e2060008201527f6f7220657175616c20746f202431303030000000000000000000000000000000602082015250565b6000612522603183611a2a565b915061252d826124c6565b604082019050919050565b6000602082019050818103600083015261255181612515565b9050919050565b600061256382611aa7565b915061256e83611aa7565b92508282101561258157612580612206565b5b828203905092915050565b7f4e487b7100000000000000000000000000000000000000000000000000000000600052603160045260246000fd5b7f41646472657373206e6f7420666f756e6420696e20746865206c697374000000600082015250565b60006125f1601d83611a2a565b91506125fc826125bb565b602082019050919050565b60006020820190508181036000830152612620816125e4565b9050919050565b60008190508160005260206000209050919050565b60008154612649816121a5565b6126538186612123565b9450600182166000811461266e576001811461267f576126b2565b60ff198316865281860193506126b2565b61268885612627565b60005b838110156126aa5781548189015260018201915060208101905061268b565b838801955050505b50505092915050565b60006126c7828461263c565b91508190509291505056fea264697066735822122039574c2022cf5ccba01ca5ec216449621b72cb04661e7d2d7733bafd9beb327864736f6c634300080b0033",
  "immutableReferences": {},
  "source": "// SPDX-License-Identifier: MIT\npragma solidity ^0.8.0;\n\ncontract Student {\n    struct Record {\n        string studentid;\n        string firstName;\n        string lastName;\n        string role;\n        uint gpa;\n        uint attendence;\n        uint scholarship;\n    }\n    \n    mapping (string => Record) records;\n    uint public recordCount;\n    uint public scholarship;\n    address public owner;\n    address[] public allowedAddresses;\n    string[] private recordKeys;\n    \n    constructor(uint new_scholarship) {\n        require(new_scholarship>=1000, \"Scholarship should be atleast 1000\");\n        assert(new_scholarship >= 1000);\n        scholarship=new_scholarship;\n        owner = msg.sender;\n    }\n\n    modifier onlyAllowed {\n        bool isAllowed = false;\n        for (uint i = 0; i < allowedAddresses.length; i++) {\n            if (msg.sender == allowedAddresses[i]) {\n                isAllowed = true;\n                break;\n            }\n        }\n        if(msg.sender == owner)\n            isAllowed = true;\n        if(isAllowed==false)\n            require(false, \"Access denied. You are not allowed to call this function.\");\n        _;\n    }\n\n    modifier onlyOwner {\n        require(msg.sender == owner, \"Access denied. You are not the owner.\");\n        _;\n    }\n\n    function addAddress(address newAddress) public onlyOwner {\n        uint check=0;\n        for (uint i = 0; i < allowedAddresses.length; i++) \n            {\n                if (allowedAddresses[i] == newAddress) {\n                    check=1;\n                    break;\n                }\n            }\n        if(check==1)\n            require(false,\"Address already exists in the list\");\n        else\n            allowedAddresses.push(newAddress);\n    }\n\n    function deleteAddress(address newAddress) public onlyOwner {\n        uint check=0;\n        for (uint i = 0; i < allowedAddresses.length; i++) \n        {\n            if (allowedAddresses[i] == newAddress) \n                {\n                    if (i < allowedAddresses.length - 1)\n                        allowedAddresses[i] = allowedAddresses[allowedAddresses.length - 1];     \n                    allowedAddresses.pop();\n                    check = 1;\n                    break;\n                }\n        }\n        if(check==0)\n            require(false,\"Address not found in the list\");\n    }\n\n    function getAddresses() public view onlyOwner returns (address[] memory) {\n        return allowedAddresses;\n    }\n    function createRecord(string memory _studentid, string memory _firstName, string memory _lastName, string memory _role, uint _gpa, uint _attendence) public onlyAllowed {\n        //require(keccak256(abi.encodePacked(records[_studentid].studentid )) == keccak256(abi.encodePacked(_studentid)), \"Student already exists\");\n        uint _scholarship=0;\n        require(scholarship > 0, \"Set the scholarship first, to create a record\");\n        if(_gpa>=300 && _attendence>75)\n            _scholarship = scholarship;\n        Record memory newRecord = Record(_studentid, _firstName, _lastName, _role, _gpa, _attendence, _scholarship);\n        records[_studentid] = newRecord;\n        recordCount++;\n        recordKeys.push(_studentid);\n    }\n    \n    function updateRecord(string memory _studentid, string memory _firstName, string memory _lastName, string memory _role, uint _gpa, uint _attendence) public onlyAllowed {\n        Record storage recordToUpdate = records[_studentid];\n        recordToUpdate.firstName = _firstName;\n        recordToUpdate.lastName = _lastName;\n        recordToUpdate.gpa = _gpa;\n        recordToUpdate.role = _role;\n        recordToUpdate.attendence = _attendence;\n        if(_gpa>=300 && _attendence>75 && recordToUpdate.scholarship == 0)\n            recordToUpdate.scholarship = scholarship;\n    }\n    \n    function setScholarship(uint new_scholarship) public onlyAllowed {\n        require(new_scholarship >=1000, \"Scholarship should be more than or equal to $1000\");\n        scholarship=new_scholarship;\n    }\n\n    function getRecordKeys() public view returns (string[] memory) {\n        return recordKeys;\n    }\n\n    function getRecord(string memory _studentid) public view returns (string memory, string memory, string memory, string memory, uint, uint, uint) {\n        Record memory record = records[_studentid];\n        return (record.studentid, record.firstName,record.lastName, record.role, record.gpa, record.attendence, record.scholarship);\n    }\n    \n    function getAllRecords() public view returns (Record[] memory) {\n        Record[] memory allRecords = new Record[](recordKeys.length);\n        for (uint i = 0; i < recordKeys.length; i++) {\n            allRecords[i] = records[recordKeys[i]];\n        }\n        return allRecords;\n    }\n\n    function deleteRecord(string memory _studentid) public onlyOwner {\n        delete records[_studentid];\n    }\n}\n",
  "sourcePath": "/Users/yasaswi/Desktop/Ualbany/Third Sem/My project/Mastersproject/contracts/Student.sol",
  "compiler": {
    "name": "solc",
    "version": "0.8.11+commit.d7f03943.Emscripten.clang"
  },
  "schemaVersion": "3.4.12",
  "updatedAt": "2023-03-25T19:47:26.863Z",
  "networkType": "ethereum",
  "devdoc": {
    "kind": "dev",
    "methods": {},
    "version": 1
  },
  "userdoc": {
    "kind": "user",
    "methods": {},
    "version": 1
  }
}