{
  "contractName": "Student",
  "abi": [
    {
      "inputs": [
        {
          "internalType": "uint256",
          "name": "new_scholarship",
          "type": "uint256"
        }
      ],
      "stateMutability": "nonpayable",
      "type": "constructor"
    },
    {
      "inputs": [
        {
          "internalType": "uint256",
          "name": "",
          "type": "uint256"
        }
      ],
      "name": "allowedAddresses",
      "outputs": [
        {
          "internalType": "address",
          "name": "",
          "type": "address"
        }
      ],
      "stateMutability": "view",
      "type": "function",
      "constant": true
    },
    {
      "inputs": [],
      "name": "owner",
      "outputs": [
        {
          "internalType": "address",
          "name": "",
          "type": "address"
        }
      ],
      "stateMutability": "view",
      "type": "function",
      "constant": true
    },
    {
      "inputs": [],
      "name": "recordCount",
      "outputs": [
        {
          "internalType": "uint256",
          "name": "",
          "type": "uint256"
        }
      ],
      "stateMutability": "view",
      "type": "function",
      "constant": true
    },
    {
      "inputs": [],
      "name": "scholarship",
      "outputs": [
        {
          "internalType": "uint256",
          "name": "",
          "type": "uint256"
        }
      ],
      "stateMutability": "view",
      "type": "function",
      "constant": true
    },
    {
      "inputs": [
        {
          "internalType": "address",
          "name": "newAddress",
          "type": "address"
        }
      ],
      "name": "addAddress",
      "outputs": [],
      "stateMutability": "nonpayable",
      "type": "function"
    },
    {
      "inputs": [],
      "name": "getAddresses",
      "outputs": [
        {
          "internalType": "address[]",
          "name": "",
          "type": "address[]"
        }
      ],
      "stateMutability": "view",
      "type": "function",
      "constant": true
    },
    {
      "inputs": [
        {
          "internalType": "string",
          "name": "_studentid",
          "type": "string"
        },
        {
          "internalType": "string",
          "name": "_name",
          "type": "string"
        },
        {
          "internalType": "string",
          "name": "_role",
          "type": "string"
        },
        {
          "internalType": "uint256",
          "name": "_gpa",
          "type": "uint256"
        },
        {
          "internalType": "uint256",
          "name": "_attendence",
          "type": "uint256"
        }
      ],
      "name": "createRecord",
      "outputs": [],
      "stateMutability": "nonpayable",
      "type": "function"
    },
    {
      "inputs": [
        {
          "internalType": "string",
          "name": "_studentid",
          "type": "string"
        },
        {
          "internalType": "string",
          "name": "_name",
          "type": "string"
        },
        {
          "internalType": "string",
          "name": "_role",
          "type": "string"
        },
        {
          "internalType": "uint256",
          "name": "_gpa",
          "type": "uint256"
        },
        {
          "internalType": "uint256",
          "name": "_attendence",
          "type": "uint256"
        }
      ],
      "name": "updateRecord",
      "outputs": [],
      "stateMutability": "nonpayable",
      "type": "function"
    },
    {
      "inputs": [
        {
          "internalType": "uint256",
          "name": "new_scholarship",
          "type": "uint256"
        }
      ],
      "name": "setScholarship",
      "outputs": [],
      "stateMutability": "nonpayable",
      "type": "function"
    },
    {
      "inputs": [],
      "name": "getRecordKeys",
      "outputs": [
        {
          "internalType": "string[]",
          "name": "",
          "type": "string[]"
        }
      ],
      "stateMutability": "view",
      "type": "function",
      "constant": true
    },
    {
      "inputs": [
        {
          "internalType": "string",
          "name": "_studentid",
          "type": "string"
        }
      ],
      "name": "getRecord",
      "outputs": [
        {
          "internalType": "string",
          "name": "",
          "type": "string"
        },
        {
          "internalType": "string",
          "name": "",
          "type": "string"
        },
        {
          "internalType": "string",
          "name": "",
          "type": "string"
        },
        {
          "internalType": "uint256",
          "name": "",
          "type": "uint256"
        },
        {
          "internalType": "uint256",
          "name": "",
          "type": "uint256"
        },
        {
          "internalType": "uint256",
          "name": "",
          "type": "uint256"
        }
      ],
      "stateMutability": "view",
      "type": "function",
      "constant": true
    },
    {
      "inputs": [],
      "name": "getAllRecords",
      "outputs": [
        {
          "components": [
            {
              "internalType": "string",
              "name": "studentid",
              "type": "string"
            },
            {
              "internalType": "string",
              "name": "name",
              "type": "string"
            },
            {
              "internalType": "string",
              "name": "role",
              "type": "string"
            },
            {
              "internalType": "uint256",
              "name": "gpa",
              "type": "uint256"
            },
            {
              "internalType": "uint256",
              "name": "attendence",
              "type": "uint256"
            },
            {
              "internalType": "uint256",
              "name": "scholarship",
              "type": "uint256"
            }
          ],
          "internalType": "struct Student.Record[]",
          "name": "",
          "type": "tuple[]"
        }
      ],
      "stateMutability": "view",
      "type": "function",
      "constant": true
    },
    {
      "inputs": [
        {
          "internalType": "string",
          "name": "_studentid",
          "type": "string"
        }
      ],
      "name": "deleteRecord",
      "outputs": [],
      "stateMutability": "nonpayable",
      "type": "function"
    }
  ],
  "bytecode": "0x60806040523480156200001157600080fd5b5060405162001f8c38038062001f8c8339818101604052810190620000379190620000dc565b6103e88110156200004d576200004c6200010e565b5b8060028190555033600360006101000a81548173ffffffffffffffffffffffffffffffffffffffff021916908373ffffffffffffffffffffffffffffffffffffffff160217905550506200013d565b600080fd5b6000819050919050565b620000b681620000a1565b8114620000c257600080fd5b50565b600081519050620000d681620000ab565b92915050565b600060208284031215620000f557620000f46200009c565b5b60006200010584828501620000c5565b91505092915050565b7f4e487b7100000000000000000000000000000000000000000000000000000000600052600160045260246000fd5b611e3f806200014d6000396000f3fe608060405234801561001057600080fd5b50600436106100cf5760003560e01c80638da5cb5b1161008c578063a39fac1211610066578063a39fac1214610203578063a753977514610221578063a7f9fe721461023f578063fbc47d531461025d576100cf565b80638da5cb5b146101ab578063900407bc146101c957806392af1b08146101e7576100cf565b8063106f323b146100d457806311dd8845146100f057806338eada1c1461012557806339638ede1461014157806364b55bed1461015f578063701a07351461018f575b600080fd5b6100ee60048036038101906100e99190611364565b610279565b005b61010a60048036038101906101059190611433565b6104e2565b60405161011c96959493929190611513565b60405180910390f35b61013f600480360381019061013a91906115e7565b610720565b005b610149610816565b6040516101569190611720565b60405180910390f35b61017960048036038101906101749190611742565b6108ef565b604051610186919061177e565b60405180910390f35b6101a960048036038101906101a49190611742565b61092e565b005b6101b3610a2c565b6040516101c0919061177e565b60405180910390f35b6101d1610a52565b6040516101de9190611799565b60405180910390f35b61020160048036038101906101fc9190611364565b610a58565b005b61020b610bd9565b6040516102189190611872565b60405180910390f35b610229610cf7565b6040516102369190611799565b60405180910390f35b610247610cfd565b60405161025491906119fc565b60405180910390f35b61027760048036038101906102729190611433565b610fbf565b005b6000805b600480549050811015610318576004818154811061029e5761029d611a1e565b5b9060005260206000200160009054906101000a900473ffffffffffffffffffffffffffffffffffffffff1673ffffffffffffffffffffffffffffffffffffffff163373ffffffffffffffffffffffffffffffffffffffff1614156103055760019150610318565b808061031090611a7c565b91505061027d565b5080610359576040517f08c379a000000000000000000000000000000000000000000000000000000000815260040161035090611b37565b60405180910390fd5b6000806002541161039f576040517f08c379a000000000000000000000000000000000000000000000000000000000815260040161039690611bc9565b60405180910390fd5b61012c841180156103b157506102ee83115b156103bc5760025490505b60006040518060c00160405280898152602001888152602001878152602001868152602001858152602001838152509050806000896040516103fe9190611c25565b908152602001604051809103902060008201518160000190805190602001906104289291906110bb565b5060208201518160010190805190602001906104459291906110bb565b5060408201518160020190805190602001906104629291906110bb565b50606082015181600301556080820151816004015560a082015181600501559050506001600081548092919061049790611a7c565b91905055506005889080600181540180825580915050600190039060005260206000200160009091909190915090805190602001906104d79291906110bb565b505050505050505050565b60608060606000806000806000886040516104fd9190611c25565b90815260200160405180910390206040518060c001604052908160008201805461052690611c6b565b80601f016020809104026020016040519081016040528092919081815260200182805461055290611c6b565b801561059f5780601f106105745761010080835404028352916020019161059f565b820191906000526020600020905b81548152906001019060200180831161058257829003601f168201915b505050505081526020016001820180546105b890611c6b565b80601f01602080910402602001604051908101604052809291908181526020018280546105e490611c6b565b80156106315780601f1061060657610100808354040283529160200191610631565b820191906000526020600020905b81548152906001019060200180831161061457829003601f168201915b5050505050815260200160028201805461064a90611c6b565b80601f016020809104026020016040519081016040528092919081815260200182805461067690611c6b565b80156106c35780601f10610698576101008083540402835291602001916106c3565b820191906000526020600020905b8154815290600101906020018083116106a657829003601f168201915b5050505050815260200160038201548152602001600482015481526020016005820154815250509050806000015181602001518260400151836060015184608001518560a001519650965096509650965096505091939550919395565b600360009054906101000a900473ffffffffffffffffffffffffffffffffffffffff1673ffffffffffffffffffffffffffffffffffffffff163373ffffffffffffffffffffffffffffffffffffffff16146107b0576040517f08c379a00000000000000000000000000000000000000000000000000000000081526004016107a790611d0f565b60405180910390fd5b6004819080600181540180825580915050600190039060005260206000200160009091909190916101000a81548173ffffffffffffffffffffffffffffffffffffffff021916908373ffffffffffffffffffffffffffffffffffffffff16021790555050565b60606005805480602002602001604051908101604052809291908181526020016000905b828210156108e657838290600052602060002001805461085990611c6b565b80601f016020809104026020016040519081016040528092919081815260200182805461088590611c6b565b80156108d25780601f106108a7576101008083540402835291602001916108d2565b820191906000526020600020905b8154815290600101906020018083116108b557829003601f168201915b50505050508152602001906001019061083a565b50505050905090565b600481815481106108ff57600080fd5b906000526020600020016000915054906101000a900473ffffffffffffffffffffffffffffffffffffffff1681565b6000805b6004805490508110156109cd576004818154811061095357610952611a1e565b5b9060005260206000200160009054906101000a900473ffffffffffffffffffffffffffffffffffffffff1673ffffffffffffffffffffffffffffffffffffffff163373ffffffffffffffffffffffffffffffffffffffff1614156109ba57600191506109cd565b80806109c590611a7c565b915050610932565b5080610a0e576040517f08c379a0000000000000000000000000000000000000000000000000000000008152600401610a0590611b37565b60405180910390fd5b6103e8821015610a2157610a20611d2f565b5b816002819055505050565b600360009054906101000a900473ffffffffffffffffffffffffffffffffffffffff1681565b60015481565b6000805b600480549050811015610af75760048181548110610a7d57610a7c611a1e565b5b9060005260206000200160009054906101000a900473ffffffffffffffffffffffffffffffffffffffff1673ffffffffffffffffffffffffffffffffffffffff163373ffffffffffffffffffffffffffffffffffffffff161415610ae45760019150610af7565b8080610aef90611a7c565b915050610a5c565b5080610b38576040517f08c379a0000000000000000000000000000000000000000000000000000000008152600401610b2f90611b37565b60405180910390fd5b60008087604051610b499190611c25565b9081526020016040518091039020905085816001019080519060200190610b719291906110bb565b5083816003018190555084816002019080519060200190610b939291906110bb565b5082816004018190555061012c84118015610baf57506102ee83115b8015610bbf575060008160050154145b15610bd05760025481600501819055505b50505050505050565b6060600360009054906101000a900473ffffffffffffffffffffffffffffffffffffffff1673ffffffffffffffffffffffffffffffffffffffff163373ffffffffffffffffffffffffffffffffffffffff1614610c6b576040517f08c379a0000000000000000000000000000000000000000000000000000000008152600401610c6290611d0f565b60405180910390fd5b6004805480602002602001604051908101604052809291908181526020018280548015610ced57602002820191906000526020600020905b8160009054906101000a900473ffffffffffffffffffffffffffffffffffffffff1673ffffffffffffffffffffffffffffffffffffffff1681526020019060010190808311610ca3575b5050505050905090565b60025481565b6060600060058054905067ffffffffffffffff811115610d2057610d1f611203565b5b604051908082528060200260200182016040528015610d5957816020015b610d46611141565b815260200190600190039081610d3e5790505b50905060005b600580549050811015610fb757600060058281548110610d8257610d81611a1e565b5b90600052602060002001604051610d999190611df2565b90815260200160405180910390206040518060c0016040529081600082018054610dc290611c6b565b80601f0160208091040260200160405190810160405280929190818152602001828054610dee90611c6b565b8015610e3b5780601f10610e1057610100808354040283529160200191610e3b565b820191906000526020600020905b815481529060010190602001808311610e1e57829003601f168201915b50505050508152602001600182018054610e5490611c6b565b80601f0160208091040260200160405190810160405280929190818152602001828054610e8090611c6b565b8015610ecd5780601f10610ea257610100808354040283529160200191610ecd565b820191906000526020600020905b815481529060010190602001808311610eb057829003601f168201915b50505050508152602001600282018054610ee690611c6b565b80601f0160208091040260200160405190810160405280929190818152602001828054610f1290611c6b565b8015610f5f5780601f10610f3457610100808354040283529160200191610f5f565b820191906000526020600020905b815481529060010190602001808311610f4257829003601f168201915b505050505081526020016003820154815260200160048201548152602001600582015481525050828281518110610f9957610f98611a1e565b5b60200260200101819052508080610faf90611a7c565b915050610d5f565b508091505090565b600360009054906101000a900473ffffffffffffffffffffffffffffffffffffffff1673ffffffffffffffffffffffffffffffffffffffff163373ffffffffffffffffffffffffffffffffffffffff161461104f576040517f08c379a000000000000000000000000000000000000000000000000000000000815260040161104690611d0f565b60405180910390fd5b60008160405161105f9190611c25565b90815260200160405180910390206000808201600061107e9190611177565b60018201600061108e9190611177565b60028201600061109e9190611177565b600382016000905560048201600090556005820160009055505050565b8280546110c790611c6b565b90600052602060002090601f0160209004810192826110e95760008555611130565b82601f1061110257805160ff1916838001178555611130565b82800160010185558215611130579182015b8281111561112f578251825591602001919060010190611114565b5b50905061113d91906111b7565b5090565b6040518060c001604052806060815260200160608152602001606081526020016000815260200160008152602001600081525090565b50805461118390611c6b565b6000825580601f1061119557506111b4565b601f0160209004906000526020600020908101906111b391906111b7565b5b50565b5b808211156111d05760008160009055506001016111b8565b5090565b6000604051905090565b600080fd5b600080fd5b600080fd5b600080fd5b6000601f19601f8301169050919050565b7f4e487b7100000000000000000000000000000000000000000000000000000000600052604160045260246000fd5b61123b826111f2565b810181811067ffffffffffffffff8211171561125a57611259611203565b5b80604052505050565b600061126d6111d4565b90506112798282611232565b919050565b600067ffffffffffffffff82111561129957611298611203565b5b6112a2826111f2565b9050602081019050919050565b82818337600083830152505050565b60006112d16112cc8461127e565b611263565b9050828152602081018484840111156112ed576112ec6111ed565b5b6112f88482856112af565b509392505050565b600082601f830112611315576113146111e8565b5b81356113258482602086016112be565b91505092915050565b6000819050919050565b6113418161132e565b811461134c57600080fd5b50565b60008135905061135e81611338565b92915050565b600080600080600060a086880312156113805761137f6111de565b5b600086013567ffffffffffffffff81111561139e5761139d6111e3565b5b6113aa88828901611300565b955050602086013567ffffffffffffffff8111156113cb576113ca6111e3565b5b6113d788828901611300565b945050604086013567ffffffffffffffff8111156113f8576113f76111e3565b5b61140488828901611300565b93505060606114158882890161134f565b92505060806114268882890161134f565b9150509295509295909350565b600060208284031215611449576114486111de565b5b600082013567ffffffffffffffff811115611467576114666111e3565b5b61147384828501611300565b91505092915050565b600081519050919050565b600082825260208201905092915050565b60005b838110156114b657808201518184015260208101905061149b565b838111156114c5576000848401525b50505050565b60006114d68261147c565b6114e08185611487565b93506114f0818560208601611498565b6114f9816111f2565b840191505092915050565b61150d8161132e565b82525050565b600060c082019050818103600083015261152d81896114cb565b9050818103602083015261154181886114cb565b9050818103604083015261155581876114cb565b90506115646060830186611504565b6115716080830185611504565b61157e60a0830184611504565b979650505050505050565b600073ffffffffffffffffffffffffffffffffffffffff82169050919050565b60006115b482611589565b9050919050565b6115c4816115a9565b81146115cf57600080fd5b50565b6000813590506115e1816115bb565b92915050565b6000602082840312156115fd576115fc6111de565b5b600061160b848285016115d2565b91505092915050565b600081519050919050565b600082825260208201905092915050565b6000819050602082019050919050565b600082825260208201905092915050565b600061165c8261147c565b6116668185611640565b9350611676818560208601611498565b61167f816111f2565b840191505092915050565b60006116968383611651565b905092915050565b6000602082019050919050565b60006116b682611614565b6116c0818561161f565b9350836020820285016116d285611630565b8060005b8581101561170e57848403895281516116ef858261168a565b94506116fa8361169e565b925060208a019950506001810190506116d6565b50829750879550505050505092915050565b6000602082019050818103600083015261173a81846116ab565b905092915050565b600060208284031215611758576117576111de565b5b60006117668482850161134f565b91505092915050565b611778816115a9565b82525050565b6000602082019050611793600083018461176f565b92915050565b60006020820190506117ae6000830184611504565b92915050565b600081519050919050565b600082825260208201905092915050565b6000819050602082019050919050565b6117e9816115a9565b82525050565b60006117fb83836117e0565b60208301905092915050565b6000602082019050919050565b600061181f826117b4565b61182981856117bf565b9350611834836117d0565b8060005b8381101561186557815161184c88826117ef565b975061185783611807565b925050600181019050611838565b5085935050505092915050565b6000602082019050818103600083015261188c8184611814565b905092915050565b600081519050919050565b600082825260208201905092915050565b6000819050602082019050919050565b6118c98161132e565b82525050565b600060c08301600083015184820360008601526118ec8282611651565b915050602083015184820360208601526119068282611651565b915050604083015184820360408601526119208282611651565b915050606083015161193560608601826118c0565b50608083015161194860808601826118c0565b5060a083015161195b60a08601826118c0565b508091505092915050565b600061197283836118cf565b905092915050565b6000602082019050919050565b600061199282611894565b61199c818561189f565b9350836020820285016119ae856118b0565b8060005b858110156119ea57848403895281516119cb8582611966565b94506119d68361197a565b925060208a019950506001810190506119b2565b50829750879550505050505092915050565b60006020820190508181036000830152611a168184611987565b905092915050565b7f4e487b7100000000000000000000000000000000000000000000000000000000600052603260045260246000fd5b7f4e487b7100000000000000000000000000000000000000000000000000000000600052601160045260246000fd5b6000611a878261132e565b91507fffffffffffffffffffffffffffffffffffffffffffffffffffffffffffffffff821415611aba57611ab9611a4d565b5b600182019050919050565b7f4163636573732064656e6965642e20596f7520617265206e6f7420616c6c6f7760008201527f656420746f2063616c6c20746869732066756e6374696f6e2e00000000000000602082015250565b6000611b21603983611487565b9150611b2c82611ac5565b604082019050919050565b60006020820190508181036000830152611b5081611b14565b9050919050565b7f53657420746865207363686f6c6172736869702066697273742c20746f20637260008201527f656174652061207265636f726400000000000000000000000000000000000000602082015250565b6000611bb3602d83611487565b9150611bbe82611b57565b604082019050919050565b60006020820190508181036000830152611be281611ba6565b9050919050565b600081905092915050565b6000611bff8261147c565b611c098185611be9565b9350611c19818560208601611498565b80840191505092915050565b6000611c318284611bf4565b915081905092915050565b7f4e487b7100000000000000000000000000000000000000000000000000000000600052602260045260246000fd5b60006002820490506001821680611c8357607f821691505b60208210811415611c9757611c96611c3c565b5b50919050565b7f4163636573732064656e6965642e20596f7520617265206e6f7420746865206f60008201527f776e65722e000000000000000000000000000000000000000000000000000000602082015250565b6000611cf9602583611487565b9150611d0482611c9d565b604082019050919050565b60006020820190508181036000830152611d2881611cec565b9050919050565b7f4e487b7100000000000000000000000000000000000000000000000000000000600052600160045260246000fd5b60008190508160005260206000209050919050565b60008154611d8081611c6b565b611d8a8186611be9565b94506001821660008114611da55760018114611db657611de9565b60ff19831686528186019350611de9565b611dbf85611d5e565b60005b83811015611de157815481890152600182019150602081019050611dc2565b838801955050505b50505092915050565b6000611dfe8284611d73565b91508190509291505056fea2646970667358221220c597cf840694e8e214aca6c02bda966706be57c1fef62c34a702f65051b3fef464736f6c634300080b0033",
  "immutableReferences": {},
  "source": "// SPDX-License-Identifier: MIT\npragma solidity ^0.8.0;\n\ncontract Student {\n    struct Record {\n        string studentid;\n        string name;\n        string role;\n        uint gpa;\n        uint attendence;\n        uint scholarship;\n    }\n    \n    mapping (string => Record) records;\n    uint public recordCount;\n    uint public scholarship;\n    address public owner;\n    address[] public allowedAddresses;\n    string[] private recordKeys;\n    \n    constructor(uint new_scholarship) {\n        assert(new_scholarship >= 1000);\n        scholarship=new_scholarship;\n        owner = msg.sender;\n    }\n\n    modifier onlyAllowed {\n        bool isAllowed = false;\n        for (uint i = 0; i < allowedAddresses.length; i++) {\n            if (msg.sender == allowedAddresses[i]) {\n                isAllowed = true;\n                break;\n            }\n        }\n        require(isAllowed, \"Access denied. You are not allowed to call this function.\");\n        _;\n    }\n\n    modifier onlyOwner {\n        require(msg.sender == owner, \"Access denied. You are not the owner.\");\n        _;\n    }\n\n    function addAddress(address newAddress) public onlyOwner {\n        allowedAddresses.push(newAddress);\n    }\n\n    function getAddresses() public view onlyOwner returns (address[] memory) {\n        return allowedAddresses;\n    }\n    function createRecord(string memory _studentid, string memory _name,string memory _role, uint _gpa, uint _attendence) public onlyAllowed {\n        //require(keccak256(abi.encodePacked(records[_name].name )) == keccak256(abi.encodePacked(_name)), \"Record already exists\");\n        uint _scholarship=0;\n        require(scholarship > 0, \"Set the scholarship first, to create a record\");\n        if(_gpa>300 && _attendence>750)\n            _scholarship = scholarship;\n        Record memory newRecord = Record(_studentid, _name, _role, _gpa, _attendence, _scholarship);\n        records[_studentid] = newRecord;\n        recordCount++;\n        recordKeys.push(_studentid);\n    }\n    \n    function updateRecord(string memory _studentid, string memory _name, string memory _role, uint _gpa, uint _attendence) public onlyAllowed {\n        Record storage recordToUpdate = records[_studentid];\n        recordToUpdate.name = _name;\n        recordToUpdate.gpa = _gpa;\n        recordToUpdate.role = _role;\n        recordToUpdate.attendence = _attendence;\n        if(_gpa>300 && _attendence>750 && recordToUpdate.scholarship == 0)\n            recordToUpdate.scholarship = scholarship;\n    }\n    \n    function setScholarship(uint new_scholarship) public onlyAllowed {\n        assert(new_scholarship >= 1000);\n        scholarship=new_scholarship;\n    }\n\n    function getRecordKeys() public view returns (string[] memory) {\n        return recordKeys;\n    }\n\n    function getRecord(string memory _studentid) public view returns (string memory, string memory, string memory, uint, uint, uint) {\n        Record memory record = records[_studentid];\n        return (record.studentid, record.name, record.role, record.gpa, record.attendence, record.scholarship);\n    }\n    \n    function getAllRecords() public view returns (Record[] memory) {\n        Record[] memory allRecords = new Record[](recordKeys.length);\n        for (uint i = 0; i < recordKeys.length; i++) {\n            allRecords[i] = records[recordKeys[i]];\n        }\n        return allRecords;\n    }\n\n    function deleteRecord(string memory _studentid) public onlyOwner {\n        delete records[_studentid];\n    }\n}\n",
  "sourcePath": "/Users/yasaswi/Desktop/Ualbany/Third Sem/My project/Mastersproject/contracts/Student.sol",
  "compiler": {
    "name": "solc",
    "version": "0.8.11+commit.d7f03943.Emscripten.clang"
  },
  "schemaVersion": "3.4.12",
  "updatedAt": "2023-03-16T02:46:34.113Z",
  "networkType": "ethereum",
  "devdoc": {
    "kind": "dev",
    "methods": {},
    "version": 1
  },
  "userdoc": {
    "kind": "user",
    "methods": {},
    "version": 1
  }
}