{
  "contractName": "Student",
  "abi": [
    {
      "inputs": [
        {
          "internalType": "uint256",
          "name": "new_scholarship",
          "type": "uint256"
        }
      ],
      "stateMutability": "nonpayable",
      "type": "constructor"
    },
    {
      "inputs": [
        {
          "internalType": "uint256",
          "name": "",
          "type": "uint256"
        }
      ],
      "name": "allowedAddresses",
      "outputs": [
        {
          "internalType": "address",
          "name": "",
          "type": "address"
        }
      ],
      "stateMutability": "view",
      "type": "function",
      "constant": true
    },
    {
      "inputs": [],
      "name": "owner",
      "outputs": [
        {
          "internalType": "address",
          "name": "",
          "type": "address"
        }
      ],
      "stateMutability": "view",
      "type": "function",
      "constant": true
    },
    {
      "inputs": [],
      "name": "recordCount",
      "outputs": [
        {
          "internalType": "uint256",
          "name": "",
          "type": "uint256"
        }
      ],
      "stateMutability": "view",
      "type": "function",
      "constant": true
    },
    {
      "inputs": [],
      "name": "scholarship",
      "outputs": [
        {
          "internalType": "uint256",
          "name": "",
          "type": "uint256"
        }
      ],
      "stateMutability": "view",
      "type": "function",
      "constant": true
    },
    {
      "inputs": [
        {
          "internalType": "address",
          "name": "newAddress",
          "type": "address"
        }
      ],
      "name": "addAddress",
      "outputs": [],
      "stateMutability": "nonpayable",
      "type": "function"
    },
    {
      "inputs": [
        {
          "internalType": "address",
          "name": "newAddress",
          "type": "address"
        }
      ],
      "name": "deleteAddress",
      "outputs": [],
      "stateMutability": "nonpayable",
      "type": "function"
    },
    {
      "inputs": [],
      "name": "getAddresses",
      "outputs": [
        {
          "internalType": "address[]",
          "name": "",
          "type": "address[]"
        }
      ],
      "stateMutability": "view",
      "type": "function",
      "constant": true
    },
    {
      "inputs": [
        {
          "internalType": "string",
          "name": "_studentid",
          "type": "string"
        },
        {
          "internalType": "string",
          "name": "_firstName",
          "type": "string"
        },
        {
          "internalType": "string",
          "name": "_lastName",
          "type": "string"
        },
        {
          "internalType": "string",
          "name": "_role",
          "type": "string"
        },
        {
          "internalType": "uint256",
          "name": "_gpa",
          "type": "uint256"
        },
        {
          "internalType": "uint256",
          "name": "_gre",
          "type": "uint256"
        },
        {
          "internalType": "bool",
          "name": "_os",
          "type": "bool"
        },
        {
          "internalType": "bool",
          "name": "_ads",
          "type": "bool"
        },
        {
          "internalType": "bool",
          "name": "_se",
          "type": "bool"
        }
      ],
      "name": "createRecord",
      "outputs": [],
      "stateMutability": "nonpayable",
      "type": "function"
    },
    {
      "inputs": [
        {
          "internalType": "string",
          "name": "_studentid",
          "type": "string"
        },
        {
          "internalType": "string",
          "name": "_firstName",
          "type": "string"
        },
        {
          "internalType": "string",
          "name": "_lastName",
          "type": "string"
        },
        {
          "internalType": "string",
          "name": "_role",
          "type": "string"
        },
        {
          "internalType": "uint256",
          "name": "_gpa",
          "type": "uint256"
        },
        {
          "internalType": "uint256",
          "name": "_gre",
          "type": "uint256"
        },
        {
          "internalType": "bool",
          "name": "_os",
          "type": "bool"
        },
        {
          "internalType": "bool",
          "name": "_ads",
          "type": "bool"
        },
        {
          "internalType": "bool",
          "name": "_se",
          "type": "bool"
        }
      ],
      "name": "updateRecord",
      "outputs": [],
      "stateMutability": "nonpayable",
      "type": "function"
    },
    {
      "inputs": [
        {
          "internalType": "uint256",
          "name": "new_scholarship",
          "type": "uint256"
        }
      ],
      "name": "setScholarship",
      "outputs": [],
      "stateMutability": "nonpayable",
      "type": "function"
    },
    {
      "inputs": [],
      "name": "getRecordKeys",
      "outputs": [
        {
          "internalType": "string[]",
          "name": "",
          "type": "string[]"
        }
      ],
      "stateMutability": "view",
      "type": "function",
      "constant": true
    },
    {
      "inputs": [
        {
          "internalType": "string",
          "name": "_studentid",
          "type": "string"
        }
      ],
      "name": "getRecord",
      "outputs": [
        {
          "internalType": "string",
          "name": "",
          "type": "string"
        },
        {
          "internalType": "string",
          "name": "",
          "type": "string"
        },
        {
          "internalType": "string",
          "name": "",
          "type": "string"
        },
        {
          "internalType": "string",
          "name": "",
          "type": "string"
        },
        {
          "internalType": "uint256",
          "name": "",
          "type": "uint256"
        },
        {
          "internalType": "uint256",
          "name": "",
          "type": "uint256"
        },
        {
          "internalType": "bool",
          "name": "",
          "type": "bool"
        },
        {
          "internalType": "bool",
          "name": "",
          "type": "bool"
        },
        {
          "internalType": "bool",
          "name": "",
          "type": "bool"
        },
        {
          "internalType": "bool",
          "name": "",
          "type": "bool"
        },
        {
          "internalType": "uint256",
          "name": "",
          "type": "uint256"
        }
      ],
      "stateMutability": "view",
      "type": "function",
      "constant": true
    },
    {
      "inputs": [],
      "name": "getAllRecords",
      "outputs": [
        {
          "components": [
            {
              "internalType": "string",
              "name": "studentid",
              "type": "string"
            },
            {
              "internalType": "string",
              "name": "firstName",
              "type": "string"
            },
            {
              "internalType": "string",
              "name": "lastName",
              "type": "string"
            },
            {
              "internalType": "string",
              "name": "role",
              "type": "string"
            },
            {
              "internalType": "uint256",
              "name": "gpa",
              "type": "uint256"
            },
            {
              "internalType": "uint256",
              "name": "gre",
              "type": "uint256"
            },
            {
              "internalType": "bool",
              "name": "os",
              "type": "bool"
            },
            {
              "internalType": "bool",
              "name": "ads",
              "type": "bool"
            },
            {
              "internalType": "bool",
              "name": "se",
              "type": "bool"
            },
            {
              "internalType": "bool",
              "name": "dme",
              "type": "bool"
            },
            {
              "internalType": "uint256",
              "name": "scholarship",
              "type": "uint256"
            }
          ],
          "internalType": "struct Student.Record[]",
          "name": "",
          "type": "tuple[]"
        }
      ],
      "stateMutability": "view",
      "type": "function",
      "constant": true
    },
    {
      "inputs": [
        {
          "internalType": "string",
          "name": "_studentid",
          "type": "string"
        }
      ],
      "name": "deleteRecord",
      "outputs": [],
      "stateMutability": "nonpayable",
      "type": "function"
    }
  ],
  "bytecode": "0x60806040523480156200001157600080fd5b5060405162002d8c38038062002d8c833981810160405281019062000037919062000124565b6103e88110156200007f576040517f08c379a00000000000000000000000000000000000000000000000000000000081526004016200007690620001dd565b60405180910390fd5b6103e8811015620000955762000094620001ff565b5b8060028190555033600360006101000a81548173ffffffffffffffffffffffffffffffffffffffff021916908373ffffffffffffffffffffffffffffffffffffffff160217905550506200022e565b600080fd5b6000819050919050565b620000fe81620000e9565b81146200010a57600080fd5b50565b6000815190506200011e81620000f3565b92915050565b6000602082840312156200013d576200013c620000e4565b5b60006200014d848285016200010d565b91505092915050565b600082825260208201905092915050565b7f5363686f6c6172736869702073686f756c642062652061746c6561737420313060008201527f3030000000000000000000000000000000000000000000000000000000000000602082015250565b6000620001c560228362000156565b9150620001d28262000167565b604082019050919050565b60006020820190508181036000830152620001f881620001b6565b9050919050565b7f4e487b7100000000000000000000000000000000000000000000000000000000600052600160045260246000fd5b612b4e806200023e6000396000f3fe608060405234801561001057600080fd5b50600436106100ea5760003560e01c8063742887ff1161008c578063a39fac1211610066578063a39fac121461023f578063a75397751461025d578063a7f9fe721461027b578063fbc47d5314610299576100ea565b8063742887ff146101e75780638da5cb5b14610203578063900407bc14610221576100ea565b806339638ede116100c857806339638ede1461016157806364b55bed1461017f5780636abdaaf8146101af578063701a0735146101cb576100ea565b806311dd8845146100ef57806330d896281461012957806338eada1c14610145575b600080fd5b61010960048036038101906101049190611cfa565b6102b5565b6040516101209b9a99989796959493929190611dff565b60405180910390f35b610143600480360381019061013e9190611f1e565b610625565b005b61015f600480360381019061015a91906120b6565b6109fe565b005b610169610be5565b60405161017691906121ef565b60405180910390f35b61019960048036038101906101949190612211565b610cbe565b6040516101a6919061224d565b60405180910390f35b6101c960048036038101906101c49190611f1e565b610cfd565b005b6101e560048036038101906101e09190612211565b610fc8565b005b61020160048036038101906101fc91906120b6565b611162565b005b61020b6113ee565b604051610218919061224d565b60405180910390f35b610229611414565b6040516102369190612268565b60405180910390f35b61024761141a565b6040516102549190612341565b60405180910390f35b610265611538565b6040516102729190612268565b60405180910390f35b61028361153e565b6040516102909190612547565b60405180910390f35b6102b360048036038101906102ae9190611cfa565b6118ff565b005b60608060608060008060008060008060008060008d6040516102d791906125a5565b908152602001604051809103902060405180610160016040529081600082018054610301906125eb565b80601f016020809104026020016040519081016040528092919081815260200182805461032d906125eb565b801561037a5780601f1061034f5761010080835404028352916020019161037a565b820191906000526020600020905b81548152906001019060200180831161035d57829003601f168201915b50505050508152602001600182018054610393906125eb565b80601f01602080910402602001604051908101604052809291908181526020018280546103bf906125eb565b801561040c5780601f106103e15761010080835404028352916020019161040c565b820191906000526020600020905b8154815290600101906020018083116103ef57829003601f168201915b50505050508152602001600282018054610425906125eb565b80601f0160208091040260200160405190810160405280929190818152602001828054610451906125eb565b801561049e5780601f106104735761010080835404028352916020019161049e565b820191906000526020600020905b81548152906001019060200180831161048157829003601f168201915b505050505081526020016003820180546104b7906125eb565b80601f01602080910402602001604051908101604052809291908181526020018280546104e3906125eb565b80156105305780601f1061050557610100808354040283529160200191610530565b820191906000526020600020905b81548152906001019060200180831161051357829003601f168201915b5050505050815260200160048201548152602001600582015481526020016006820160009054906101000a900460ff161515151581526020016006820160019054906101000a900460ff161515151581526020016006820160029054906101000a900460ff161515151581526020016006820160039054906101000a900460ff161515151581526020016007820154815250509050806000015181602001518260400151836060015184608001518560a001518660c001518760e001518861010001518961012001518a61014001519b509b509b509b509b509b509b509b509b509b509b505091939597999b90929496989a50565b6000805b6004805490508110156106c4576004818154811061064a5761064961261d565b5b9060005260206000200160009054906101000a900473ffffffffffffffffffffffffffffffffffffffff1673ffffffffffffffffffffffffffffffffffffffff163373ffffffffffffffffffffffffffffffffffffffff1614156106b157600191506106c4565b80806106bc9061267b565b915050610629565b50600360009054906101000a900473ffffffffffffffffffffffffffffffffffffffff1673ffffffffffffffffffffffffffffffffffffffff163373ffffffffffffffffffffffffffffffffffffffff16141561072057600190505b60001515811515141561076f57600061076e576040517f08c379a000000000000000000000000000000000000000000000000000000000815260040161076590612736565b60405180910390fd5b5b6000600254116107b4576040517f08c379a00000000000000000000000000000000000000000000000000000000081526004016107ab906127c8565b60405180910390fd5b6000806001905061012c88101580156107cf575061012c8710155b156107da5760025491505b600115158615151480156107f2575060011515851515145b8015610802575060011515841515145b1561080c57600090505b60006040518061016001604052808e81526020018d81526020018c81526020018b81526020018a815260200189815260200188151581526020018715158152602001861515815260200183151581526020018481525090508060008e60405161087591906125a5565b9081526020016040518091039020600082015181600001908051906020019061089f929190611a5b565b5060208201518160010190805190602001906108bc929190611a5b565b5060408201518160020190805190602001906108d9929190611a5b565b5060608201518160030190805190602001906108f6929190611a5b565b506080820151816004015560a0820151816005015560c08201518160060160006101000a81548160ff02191690831515021790555060e08201518160060160016101000a81548160ff0219169083151502179055506101008201518160060160026101000a81548160ff0219169083151502179055506101208201518160060160036101000a81548160ff0219169083151502179055506101408201518160070155905050600160008154809291906109ae9061267b565b919050555060058d9080600181540180825580915050600190039060005260206000200160009091909190915090805190602001906109ee929190611a5b565b5050505050505050505050505050565b600360009054906101000a900473ffffffffffffffffffffffffffffffffffffffff1673ffffffffffffffffffffffffffffffffffffffff163373ffffffffffffffffffffffffffffffffffffffff1614610a8e576040517f08c379a0000000000000000000000000000000000000000000000000000000008152600401610a859061285a565b60405180910390fd5b6000805b600480549050811015610b2d578273ffffffffffffffffffffffffffffffffffffffff1660048281548110610aca57610ac961261d565b5b9060005260206000200160009054906101000a900473ffffffffffffffffffffffffffffffffffffffff1673ffffffffffffffffffffffffffffffffffffffff161415610b1a5760019150610b2d565b8080610b259061267b565b915050610a92565b506001811415610b7d576000610b78576040517f08c379a0000000000000000000000000000000000000000000000000000000008152600401610b6f906128ec565b60405180910390fd5b610be1565b6004829080600181540180825580915050600190039060005260206000200160009091909190916101000a81548173ffffffffffffffffffffffffffffffffffffffff021916908373ffffffffffffffffffffffffffffffffffffffff1602179055505b5050565b60606005805480602002602001604051908101604052809291908181526020016000905b82821015610cb5578382906000526020600020018054610c28906125eb565b80601f0160208091040260200160405190810160405280929190818152602001828054610c54906125eb565b8015610ca15780601f10610c7657610100808354040283529160200191610ca1565b820191906000526020600020905b815481529060010190602001808311610c8457829003601f168201915b505050505081526020019060010190610c09565b50505050905090565b60048181548110610cce57600080fd5b906000526020600020016000915054906101000a900473ffffffffffffffffffffffffffffffffffffffff1681565b6000805b600480549050811015610d9c5760048181548110610d2257610d2161261d565b5b9060005260206000200160009054906101000a900473ffffffffffffffffffffffffffffffffffffffff1673ffffffffffffffffffffffffffffffffffffffff163373ffffffffffffffffffffffffffffffffffffffff161415610d895760019150610d9c565b8080610d949061267b565b915050610d01565b50600360009054906101000a900473ffffffffffffffffffffffffffffffffffffffff1673ffffffffffffffffffffffffffffffffffffffff163373ffffffffffffffffffffffffffffffffffffffff161415610df857600190505b600015158115151415610e47576000610e46576040517f08c379a0000000000000000000000000000000000000000000000000000000008152600401610e3d90612736565b60405180910390fd5b5b6000808b604051610e5891906125a5565b9081526020016040518091039020905089816001019080519060200190610e80929190611a5b565b5088816002019080519060200190610e99929190611a5b565b5086816004018190555087816003019080519060200190610ebb929190611a5b565b50858160050181905550848160060160006101000a81548160ff021916908315150217905550838160060160016101000a81548160ff021916908315150217905550828160060160026101000a81548160ff02191690831515021790555061012c8710158015610f2d575061012c8610155b8015610f3d575060008160070154145b15610f4e5760025481600701819055505b60011515851515148015610f66575060011515841515145b8015610f76575060011515831515145b15610f9d5760008160060160036101000a81548160ff021916908315150217905550610fbb565b60018160060160036101000a81548160ff0219169083151502179055505b5050505050505050505050565b6000805b6004805490508110156110675760048181548110610fed57610fec61261d565b5b9060005260206000200160009054906101000a900473ffffffffffffffffffffffffffffffffffffffff1673ffffffffffffffffffffffffffffffffffffffff163373ffffffffffffffffffffffffffffffffffffffff1614156110545760019150611067565b808061105f9061267b565b915050610fcc565b50600360009054906101000a900473ffffffffffffffffffffffffffffffffffffffff1673ffffffffffffffffffffffffffffffffffffffff163373ffffffffffffffffffffffffffffffffffffffff1614156110c357600190505b600015158115151415611112576000611111576040517f08c379a000000000000000000000000000000000000000000000000000000000815260040161110890612736565b60405180910390fd5b5b6103e8821015611157576040517f08c379a000000000000000000000000000000000000000000000000000000000815260040161114e9061297e565b60405180910390fd5b816002819055505050565b600360009054906101000a900473ffffffffffffffffffffffffffffffffffffffff1673ffffffffffffffffffffffffffffffffffffffff163373ffffffffffffffffffffffffffffffffffffffff16146111f2576040517f08c379a00000000000000000000000000000000000000000000000000000000081526004016111e99061285a565b60405180910390fd5b6000805b60048054905081101561139e578273ffffffffffffffffffffffffffffffffffffffff166004828154811061122e5761122d61261d565b5b9060005260206000200160009054906101000a900473ffffffffffffffffffffffffffffffffffffffff1673ffffffffffffffffffffffffffffffffffffffff16141561138b576001600480549050611287919061299e565b81101561133b57600460016004805490506112a2919061299e565b815481106112b3576112b261261d565b5b9060005260206000200160009054906101000a900473ffffffffffffffffffffffffffffffffffffffff16600482815481106112f2576112f161261d565b5b9060005260206000200160006101000a81548173ffffffffffffffffffffffffffffffffffffffff021916908373ffffffffffffffffffffffffffffffffffffffff1602179055505b600480548061134d5761134c6129d2565b5b6001900381819060005260206000200160006101000a81549073ffffffffffffffffffffffffffffffffffffffff021916905590556001915061139e565b80806113969061267b565b9150506111f6565b5060008114156113ea5760006113e9576040517f08c379a00000000000000000000000000000000000000000000000000000000081526004016113e090612a4d565b60405180910390fd5b5b5050565b600360009054906101000a900473ffffffffffffffffffffffffffffffffffffffff1681565b60015481565b6060600360009054906101000a900473ffffffffffffffffffffffffffffffffffffffff1673ffffffffffffffffffffffffffffffffffffffff163373ffffffffffffffffffffffffffffffffffffffff16146114ac576040517f08c379a00000000000000000000000000000000000000000000000000000000081526004016114a39061285a565b60405180910390fd5b600480548060200260200160405190810160405280929190818152602001828054801561152e57602002820191906000526020600020905b8160009054906101000a900473ffffffffffffffffffffffffffffffffffffffff1673ffffffffffffffffffffffffffffffffffffffff16815260200190600101908083116114e4575b5050505050905090565b60025481565b6060600060058054905067ffffffffffffffff81111561156157611560611bcf565b5b60405190808252806020026020018201604052801561159a57816020015b611587611ae1565b81526020019060019003908161157f5790505b50905060005b6005805490508110156118f7576000600582815481106115c3576115c261261d565b5b906000526020600020016040516115da9190612b01565b908152602001604051809103902060405180610160016040529081600082018054611604906125eb565b80601f0160208091040260200160405190810160405280929190818152602001828054611630906125eb565b801561167d5780601f106116525761010080835404028352916020019161167d565b820191906000526020600020905b81548152906001019060200180831161166057829003601f168201915b50505050508152602001600182018054611696906125eb565b80601f01602080910402602001604051908101604052809291908181526020018280546116c2906125eb565b801561170f5780601f106116e45761010080835404028352916020019161170f565b820191906000526020600020905b8154815290600101906020018083116116f257829003601f168201915b50505050508152602001600282018054611728906125eb565b80601f0160208091040260200160405190810160405280929190818152602001828054611754906125eb565b80156117a15780601f10611776576101008083540402835291602001916117a1565b820191906000526020600020905b81548152906001019060200180831161178457829003601f168201915b505050505081526020016003820180546117ba906125eb565b80601f01602080910402602001604051908101604052809291908181526020018280546117e6906125eb565b80156118335780601f1061180857610100808354040283529160200191611833565b820191906000526020600020905b81548152906001019060200180831161181657829003601f168201915b5050505050815260200160048201548152602001600582015481526020016006820160009054906101000a900460ff161515151581526020016006820160019054906101000a900460ff161515151581526020016006820160029054906101000a900460ff161515151581526020016006820160039054906101000a900460ff161515151581526020016007820154815250508282815181106118d9576118d861261d565b5b602002602001018190525080806118ef9061267b565b9150506115a0565b508091505090565b600360009054906101000a900473ffffffffffffffffffffffffffffffffffffffff1673ffffffffffffffffffffffffffffffffffffffff163373ffffffffffffffffffffffffffffffffffffffff161461198f576040517f08c379a00000000000000000000000000000000000000000000000000000000081526004016119869061285a565b60405180910390fd5b60008160405161199f91906125a5565b9081526020016040518091039020600080820160006119be9190611b43565b6001820160006119ce9190611b43565b6002820160006119de9190611b43565b6003820160006119ee9190611b43565b600482016000905560058201600090556006820160006101000a81549060ff02191690556006820160016101000a81549060ff02191690556006820160026101000a81549060ff02191690556006820160036101000a81549060ff02191690556007820160009055505050565b828054611a67906125eb565b90600052602060002090601f016020900481019282611a895760008555611ad0565b82601f10611aa257805160ff1916838001178555611ad0565b82800160010185558215611ad0579182015b82811115611acf578251825591602001919060010190611ab4565b5b509050611add9190611b83565b5090565b604051806101600160405280606081526020016060815260200160608152602001606081526020016000815260200160008152602001600015158152602001600015158152602001600015158152602001600015158152602001600081525090565b508054611b4f906125eb565b6000825580601f10611b615750611b80565b601f016020900490600052602060002090810190611b7f9190611b83565b5b50565b5b80821115611b9c576000816000905550600101611b84565b5090565b6000604051905090565b600080fd5b600080fd5b600080fd5b600080fd5b6000601f19601f8301169050919050565b7f4e487b7100000000000000000000000000000000000000000000000000000000600052604160045260246000fd5b611c0782611bbe565b810181811067ffffffffffffffff82111715611c2657611c25611bcf565b5b80604052505050565b6000611c39611ba0565b9050611c458282611bfe565b919050565b600067ffffffffffffffff821115611c6557611c64611bcf565b5b611c6e82611bbe565b9050602081019050919050565b82818337600083830152505050565b6000611c9d611c9884611c4a565b611c2f565b905082815260208101848484011115611cb957611cb8611bb9565b5b611cc4848285611c7b565b509392505050565b600082601f830112611ce157611ce0611bb4565b5b8135611cf1848260208601611c8a565b91505092915050565b600060208284031215611d1057611d0f611baa565b5b600082013567ffffffffffffffff811115611d2e57611d2d611baf565b5b611d3a84828501611ccc565b91505092915050565b600081519050919050565b600082825260208201905092915050565b60005b83811015611d7d578082015181840152602081019050611d62565b83811115611d8c576000848401525b50505050565b6000611d9d82611d43565b611da78185611d4e565b9350611db7818560208601611d5f565b611dc081611bbe565b840191505092915050565b6000819050919050565b611dde81611dcb565b82525050565b60008115159050919050565b611df981611de4565b82525050565b6000610160820190508181036000830152611e1a818e611d92565b90508181036020830152611e2e818d611d92565b90508181036040830152611e42818c611d92565b90508181036060830152611e56818b611d92565b9050611e65608083018a611dd5565b611e7260a0830189611dd5565b611e7f60c0830188611df0565b611e8c60e0830187611df0565b611e9a610100830186611df0565b611ea8610120830185611df0565b611eb6610140830184611dd5565b9c9b505050505050505050505050565b611ecf81611dcb565b8114611eda57600080fd5b50565b600081359050611eec81611ec6565b92915050565b611efb81611de4565b8114611f0657600080fd5b50565b600081359050611f1881611ef2565b92915050565b60008060008060008060008060006101208a8c031215611f4157611f40611baa565b5b60008a013567ffffffffffffffff811115611f5f57611f5e611baf565b5b611f6b8c828d01611ccc565b99505060208a013567ffffffffffffffff811115611f8c57611f8b611baf565b5b611f988c828d01611ccc565b98505060408a013567ffffffffffffffff811115611fb957611fb8611baf565b5b611fc58c828d01611ccc565b97505060608a013567ffffffffffffffff811115611fe657611fe5611baf565b5b611ff28c828d01611ccc565b96505060806120038c828d01611edd565b95505060a06120148c828d01611edd565b94505060c06120258c828d01611f09565b93505060e06120368c828d01611f09565b9250506101006120488c828d01611f09565b9150509295985092959850929598565b600073ffffffffffffffffffffffffffffffffffffffff82169050919050565b600061208382612058565b9050919050565b61209381612078565b811461209e57600080fd5b50565b6000813590506120b08161208a565b92915050565b6000602082840312156120cc576120cb611baa565b5b60006120da848285016120a1565b91505092915050565b600081519050919050565b600082825260208201905092915050565b6000819050602082019050919050565b600082825260208201905092915050565b600061212b82611d43565b612135818561210f565b9350612145818560208601611d5f565b61214e81611bbe565b840191505092915050565b60006121658383612120565b905092915050565b6000602082019050919050565b6000612185826120e3565b61218f81856120ee565b9350836020820285016121a1856120ff565b8060005b858110156121dd57848403895281516121be8582612159565b94506121c98361216d565b925060208a019950506001810190506121a5565b50829750879550505050505092915050565b60006020820190508181036000830152612209818461217a565b905092915050565b60006020828403121561222757612226611baa565b5b600061223584828501611edd565b91505092915050565b61224781612078565b82525050565b6000602082019050612262600083018461223e565b92915050565b600060208201905061227d6000830184611dd5565b92915050565b600081519050919050565b600082825260208201905092915050565b6000819050602082019050919050565b6122b881612078565b82525050565b60006122ca83836122af565b60208301905092915050565b6000602082019050919050565b60006122ee82612283565b6122f8818561228e565b93506123038361229f565b8060005b8381101561233457815161231b88826122be565b9750612326836122d6565b925050600181019050612307565b5085935050505092915050565b6000602082019050818103600083015261235b81846122e3565b905092915050565b600081519050919050565b600082825260208201905092915050565b6000819050602082019050919050565b61239881611dcb565b82525050565b6123a781611de4565b82525050565b60006101608301600083015184820360008601526123cb8282612120565b915050602083015184820360208601526123e58282612120565b915050604083015184820360408601526123ff8282612120565b915050606083015184820360608601526124198282612120565b915050608083015161242e608086018261238f565b5060a083015161244160a086018261238f565b5060c083015161245460c086018261239e565b5060e083015161246760e086018261239e565b5061010083015161247c61010086018261239e565b5061012083015161249161012086018261239e565b506101408301516124a661014086018261238f565b508091505092915050565b60006124bd83836123ad565b905092915050565b6000602082019050919050565b60006124dd82612363565b6124e7818561236e565b9350836020820285016124f98561237f565b8060005b85811015612535578484038952815161251685826124b1565b9450612521836124c5565b925060208a019950506001810190506124fd565b50829750879550505050505092915050565b6000602082019050818103600083015261256181846124d2565b905092915050565b600081905092915050565b600061257f82611d43565b6125898185612569565b9350612599818560208601611d5f565b80840191505092915050565b60006125b18284612574565b915081905092915050565b7f4e487b7100000000000000000000000000000000000000000000000000000000600052602260045260246000fd5b6000600282049050600182168061260357607f821691505b60208210811415612617576126166125bc565b5b50919050565b7f4e487b7100000000000000000000000000000000000000000000000000000000600052603260045260246000fd5b7f4e487b7100000000000000000000000000000000000000000000000000000000600052601160045260246000fd5b600061268682611dcb565b91507fffffffffffffffffffffffffffffffffffffffffffffffffffffffffffffffff8214156126b9576126b861264c565b5b600182019050919050565b7f4163636573732064656e6965642e20596f7520617265206e6f7420616c6c6f7760008201527f656420746f2063616c6c20746869732066756e6374696f6e2e00000000000000602082015250565b6000612720603983611d4e565b915061272b826126c4565b604082019050919050565b6000602082019050818103600083015261274f81612713565b9050919050565b7f53657420746865207363686f6c6172736869702066697273742c20746f20637260008201527f656174652061207265636f726400000000000000000000000000000000000000602082015250565b60006127b2602d83611d4e565b91506127bd82612756565b604082019050919050565b600060208201905081810360008301526127e1816127a5565b9050919050565b7f4163636573732064656e6965642e20596f7520617265206e6f7420746865206f60008201527f776e65722e000000000000000000000000000000000000000000000000000000602082015250565b6000612844602583611d4e565b915061284f826127e8565b604082019050919050565b6000602082019050818103600083015261287381612837565b9050919050565b7f4164647265737320616c72656164792065786973747320696e20746865206c6960008201527f7374000000000000000000000000000000000000000000000000000000000000602082015250565b60006128d6602283611d4e565b91506128e18261287a565b604082019050919050565b60006020820190508181036000830152612905816128c9565b9050919050565b7f5363686f6c6172736869702073686f756c64206265206d6f7265207468616e2060008201527f6f7220657175616c20746f202431303030000000000000000000000000000000602082015250565b6000612968603183611d4e565b91506129738261290c565b604082019050919050565b600060208201905081810360008301526129978161295b565b9050919050565b60006129a982611dcb565b91506129b483611dcb565b9250828210156129c7576129c661264c565b5b828203905092915050565b7f4e487b7100000000000000000000000000000000000000000000000000000000600052603160045260246000fd5b7f41646472657373206e6f7420666f756e6420696e20746865206c697374000000600082015250565b6000612a37601d83611d4e565b9150612a4282612a01565b602082019050919050565b60006020820190508181036000830152612a6681612a2a565b9050919050565b60008190508160005260206000209050919050565b60008154612a8f816125eb565b612a998186612569565b94506001821660008114612ab45760018114612ac557612af8565b60ff19831686528186019350612af8565b612ace85612a6d565b60005b83811015612af057815481890152600182019150602081019050612ad1565b838801955050505b50505092915050565b6000612b0d8284612a82565b91508190509291505056fea26469706673582212204b6acdacc5a16ba185fc5be592d65d0737feb9f3d155d5c1565af81ade9359a764736f6c634300080b0033",
  "immutableReferences": {},
  "source": "// SPDX-License-Identifier: MIT\npragma solidity ^0.8.0;\n\ncontract Student {\n    struct Record {\n        string studentid;\n        string firstName;\n        string lastName;\n        string role;\n        uint gpa;\n        uint gre;\n        bool os;\n        bool ads;\n        bool se;\n        bool dme;\n        uint scholarship;\n    }\n    \n    mapping (string => Record) records;\n    uint public recordCount;\n    uint public scholarship;\n    address public owner;\n    address[] public allowedAddresses;\n    string[] private recordKeys;\n    \n    constructor(uint new_scholarship) {\n        require(new_scholarship>=1000, \"Scholarship should be atleast 1000\");\n        assert(new_scholarship >= 1000);\n        scholarship=new_scholarship;\n        owner = msg.sender;\n    }\n\n    modifier onlyAllowed {\n        bool isAllowed = false;\n        for (uint i = 0; i < allowedAddresses.length; i++) {\n            if (msg.sender == allowedAddresses[i]) {\n                isAllowed = true;\n                break;\n            }\n        }\n        if(msg.sender == owner)\n            isAllowed = true;\n        if(isAllowed==false)\n            require(false, \"Access denied. You are not allowed to call this function.\");\n        _;\n    }\n\n    modifier onlyOwner {\n        require(msg.sender == owner, \"Access denied. You are not the owner.\");\n        _;\n    }\n\n    function addAddress(address newAddress) public onlyOwner {\n        uint check=0;\n        for (uint i = 0; i < allowedAddresses.length; i++) \n            {\n                if (allowedAddresses[i] == newAddress) {\n                    check=1;\n                    break;\n                }\n            }\n        if(check==1)\n            require(false,\"Address already exists in the list\");\n        else\n            allowedAddresses.push(newAddress);\n    }\n\n    function deleteAddress(address newAddress) public onlyOwner {\n        uint check=0;\n        for (uint i = 0; i < allowedAddresses.length; i++) \n        {\n            if (allowedAddresses[i] == newAddress) \n                {\n                    if (i < allowedAddresses.length - 1)\n                        allowedAddresses[i] = allowedAddresses[allowedAddresses.length - 1];     \n                    allowedAddresses.pop();\n                    check = 1;\n                    break;\n                }\n        }\n        if(check==0)\n            require(false,\"Address not found in the list\");\n    }\n\n    function getAddresses() public view onlyOwner returns (address[] memory) {\n        return allowedAddresses;\n    }\n    function createRecord(string memory _studentid, string memory _firstName, string memory _lastName, string memory _role, uint _gpa, uint _gre, bool _os, bool _ads, bool _se) public onlyAllowed {\n        //require(keccak256(abi.encodePacked(records[_studentid].studentid )) == keccak256(abi.encodePacked(_studentid)), \"Student already exists\");\n        require(scholarship > 0, \"Set the scholarship first, to create a record\");\n        uint _scholarship=0;\n        bool _dme=true;\n        if(_gpa>=300 && _gre>=300)\n            _scholarship = scholarship;\n        if(_os==true && _ads==true && _se==true)\n            _dme=false;\n        Record memory newRecord = Record(_studentid, _firstName, _lastName, _role, _gpa, _gre, _os, _ads, _se, _dme, _scholarship);\n        records[_studentid] = newRecord;\n        recordCount++;\n        recordKeys.push(_studentid);\n    }\n    \n    function updateRecord(string memory _studentid, string memory _firstName, string memory _lastName, string memory _role, uint _gpa, uint _gre, bool _os, bool _ads, bool _se) public onlyAllowed {\n        Record storage recordToUpdate = records[_studentid];\n        recordToUpdate.firstName = _firstName;\n        recordToUpdate.lastName = _lastName;\n        recordToUpdate.gpa = _gpa;\n        recordToUpdate.role = _role;\n        recordToUpdate.gre = _gre;\n        recordToUpdate.os = _os;\n        recordToUpdate.ads = _ads;\n        recordToUpdate.se = _se;\n        if(_gpa>=300 && _gre>=300 && recordToUpdate.scholarship == 0)\n            recordToUpdate.scholarship = scholarship;\n        if(_os==true && _ads==true && _se==true)\n            recordToUpdate.dme = false;\n        else\n            recordToUpdate.dme = true;\n    }\n    \n    function setScholarship(uint new_scholarship) public onlyAllowed {\n        require(new_scholarship >=1000, \"Scholarship should be more than or equal to $1000\");\n        scholarship=new_scholarship;\n    }\n\n    function getRecordKeys() public view returns (string[] memory) {\n        return recordKeys;\n    }\n\n    function getRecord(string memory _studentid) public view returns (string memory, string memory, string memory, string memory, uint, uint, bool, bool, bool, bool, uint) {\n        Record memory record = records[_studentid];\n        return (record.studentid, record.firstName,record.lastName, record.role, record.gpa, record.gre, record.os, record.ads, record.se, record.dme, record.scholarship);\n    }\n    \n    function getAllRecords() public view returns (Record[] memory) {\n        Record[] memory allRecords = new Record[](recordKeys.length);\n        for (uint i = 0; i < recordKeys.length; i++) {\n            allRecords[i] = records[recordKeys[i]];\n        }\n        return allRecords;\n    }\n\n    function deleteRecord(string memory _studentid) public onlyOwner {\n        delete records[_studentid];\n    }\n}\n",
  "sourcePath": "/Users/yasaswi/Desktop/Ualbany/Third Sem/My project/Mastersproject/contracts/Student.sol",
  "compiler": {
    "name": "solc",
    "version": "0.8.11+commit.d7f03943.Emscripten.clang"
  },
  "schemaVersion": "3.4.12",
  "updatedAt": "2023-04-10T20:12:39.824Z",
  "networkType": "ethereum",
  "devdoc": {
    "kind": "dev",
    "methods": {},
    "version": 1
  },
  "userdoc": {
    "kind": "user",
    "methods": {},
    "version": 1
  }
}